:0F08F2001209017F647E0012092412085680FB50
:10001600C18360840440200F00000000210000001E
:100026000000230300000000256E000000002605E6
:1000360000000000221F000000003C00000000003D
:100046003D00000000003101000000003201000008
:1000560000003301000000003401000000003501FB
:10006600000000003601000000003058585858586B
:100076002A58585858582B56565656562C71000022
:1000860000002D77000000002E65000000002F699B
:1000960000000000E2FF00000000608404C4200E9F
:1000A600000000000000000000000000000000004A
:1000B600000000000000000000000000000000003A
:1000C600000000000000000000000000000000002A
:1000D600000000000000000000000000000000001A
:1000E600000000000000000000000000000000000A
:1000F60000000000000000000000000000000000FA
:1001060000000000000000000000000000000000E9
:1001160000000000000000000000000000000000D9
:100126000000608403B00000000000000100000031
:1001360000000300000000000500000000000600AB
:10014600000000000200000000001C00000000008B
:100156001D00000000001100000000001200000059
:10016600000013000000000014000000000015004D
:100176000000000016000000000010000000000053
:100186000A00000000000B00000000000C00000048
:1001960000000D00000000000E00000000000F002F
:1001A60000000000E20000000000460434070000E2
:1001B6000000004603A4A00000000000460566619A
:1001C6000000000000460548E20000000000460569
:1001D60054E100000000004603AA2770000000005A
:1001E60046055A11000000000046043A17000000B8
:1001F6000000460560A8000000000046054E00000D
:0A02060000000000C10402360000F1
:10024800E53660030203A3E537B41B00400302034D
:10025800A3900260F82828730202B10202B60202D3
:10026800BD0202C40202CD0202D60202DF0202E887
:100278000202F10202FA02030302030B0203130251
:10028800031B02032302032B02033302033B020373
:100298004302034D02035702036102036B02037515
:1002A8000202BD02039202039DC2910203A37F963C
:1002B8007E0002038D7FF47E0102038D7B017A04A8
:1002C80079460203847B017A04794C0203847B011A
:1002D8007A0479520203847B017A047958020384F0
:1002E8007B017A04795E0203847B017A04796402D3
:1002F80003847B017A04796A0203847B017A047996
:1003080094803E7B017A04797080717B017A04794C
:100318007680697B017A04797C80617B017A047933
:100328008280597B017A04798880517B017A04792B
:100338008E80187B017A04799A80067B017A047989
:10034800A07D0680397B017A0479A67D02802F7B07
:10035800017A0479AC7D0280257B017A0479B27D2B
:1003680002801B7B017A0479B87D0280117B013001
:1003780003067A04794080047A0479C47D027C00FB
:1003880012083D80161209638011300304D291804F
:0F0398000AC29180067536037537E71208722284
:1006A100E5367049E53714601414601314600E14B4
:1006B100602A14603224057034C291803080147B2A
:1006C100013003067A04794080047A0479C412085F
:1006D10039801A7FF47E011209638011300304D23C
:1006E10091800AC29180067536037537E712087248
:0106F10022E6
:10059A00E5367050E537B4080050499005ACF828A4
:1005AA0028730205C40205EE0205C80205D0020539
:1005BA00D40205C40205DD0205E8C29180267B014A
:1005CA007A0379A48013D291801A7F967E00120949
:1005DA006380117B017A0379AA120839800675367D
:0805EA00037537E712087222C5
:1006F200E5367044E53714601524FE601A14601F55
:1007020014602414602C2406702ED291802A7F96C5
:100712007E0012096380217B017A057966800E7B57
:10072200017A05794880067B017A0379AA12083991
:0C07320080067536037537E71208722246
:040839007D027C00C0
:10083D008B668A678968AF05AE0412094FAB66AA4D
:09084D0067A9681207BA02000352
:10081800E4FFFE74282FF8E6FD744E2FF582740568
:100828003EF583EDF00FBF00010EEF64064E70E356
:01083800229D
:10087200E537B4E70CE536B40307E4F536F537D3CC
:0B088200220537E53770020536C3225F
:0309630002092462
:10078400E4F5B1F5B2F5B3F5B4F5ACF5AD43B3109A
:1007940053B4EF43B38053B47F53B1FE43B2014328
:1007A400B10253B2FD43E90153E9FB43EA0153EBC0
:0607B400FED2AAC2912250
:0A0210004201CC00004201C00000D2
:0E0901001207841208E1C208120959D2AF226F
:100856002001189001CCE0FEA3E0FFEE700DEF142E
:0C08660060060470060208B912090F2297
:1008B900120248500E9001CDE004F070069001CC70
:0408C900E004F02235
:0C090F001206F290054FE06002B2962242
:03000B0002073EAB
:10073E00C0E0C0F0C083C082C0D075D000C000C081
:10074E0001C002C003C004C005C006C00730010BC3
:10075E003002051208CD800312088DD007D006D0C6
:10076E0005D004D003D002D001D000D0D0D082D09A
:06077E0083D0F0D0E03250
:0300130002000EDA
:05000E00D204B28232B1
:10021A00026000060252000002500000C101C10043
:06022A00024E0000C102BB
:05094F008E608F6122A3
:070948007B007A00795422C4
:0607BA008B698A6A896B5D
:1007C000E4FFFED3EF9561E5606480F8EE64809805
:1007D000501BAB69AA6AA96B8F828E8312060BFD30
:0D07E000745A2FF8A6050FBF00010E80D639
:0107ED0022E9
:10088D00745A2551F9E4FAFB1207EE74542551F907
:06089D00E4FAFB02064A2A
:10064A008F628B638A648965E55345526002B29072
:10065A00209043E5527015E55324F8700FD280C2FA
:10066A0090E4F552F5531208A302091BC295E562FC
:10067A006004D2808002C280308113AB63AA64A96D
:10068A00651207EEEF2565F565E43564F5640553F3
:07069A00E553700205522236
:1008A300E56124FFFFE56034FFFEEFB55107EEB5C8
:0608B3005003120954225B
:05095400D295C2012252
:09091B000551E55170020550225E
:1007EE001205F2FFC3E5539407E5526480948040EE
:1007FE00055307018013C374079553FE7401A806B1
:09080E00088002C333D8FC520734
:0108170022BE
:1008CD00E54F454E6009E54F154F7007154E22C295
:0408DD0002C2012230
:090924008E4E8F4FD202D2012247
:05095900A208929022AB
:08000300E4F550F551D2012291
:10023000C106C10542056E002142056C000742055A
:07024000740008026C0006C7
:09092D0090056CEEF0A3EFF0223E
:09093600900574EEF0A3EFF0222D
:09093F00900574EEF0A3EFF02224
:01096600226E
:10052E00E57145706004B2858005308502B2852084
:10053E008559E5707027E57124DF7021D3E56F953D
:10054E006DE56C6480F8E56E6480984007C206C263
:10055E0085C2A022056FE56F7031056E22EF146023
:10056E000A04700D1204B292A0800630A003120489
:10057E00330571E5717002057090056EE0B5700B74
:0C058E00A3E0B5710675700075712122A4
:01096700226D
:01096800226C
:05095E00A207928522B2
:1004B200D3E571940FE57064809480501674017EC8
:1004C20000A871088005C333CE33CED8F9FF90055A
:1004D200788044E571641045707005900578800B52
:1004E200E57164204570700E900572E0FEA3E0FF96
:1004F2007C807D008026D3E5719410E57064809441
:1005020080402074017E00A871088005C333CE3379
:10051200CED8F9FF900572E0FCA3E0FD120638AADE
:0B05220006AB07EB4A6003D38001C367
:01052D0022AB
:10043300D3E571940FE57064809480501C74017E41
:1004430000A871088005C333CE33CED8F9FF9005D9
:1004530077E02FF09005768052E571641045707057
:100463000C900577E02400F09005768012E5716426
:10047300204570700F900571E02400F0900570E046
:100483003480F022D3E5719410E570648094804049
:100493001D74017E00A871088005C333CE33CED806
:0F04A300F9FF900571E02FF0900570E03EF02218
:1008E1005389F0438902758CFF758AF9D2A9D28C9C
:0108F10022E4
:030000000203A751
:0C03A700787FE4F6D8FD7581710203EE4A
:1005F200BB010689828A83E0225002E722BBFE0207
:09060200E32289828A83E4932239
:10060B00BB010CE58229F582E5833AF583E02250A4
:10061B0006E92582F8E622BBFE06E92582F8E222EE
:0D062B00E58229F582E5833AF583E4932208
:10063800EF8DF0A4A8F0CF8CF0A428CE8DF0A42ED6
:02064800FE2290
:1003B3000208F2E493A3F8E493A34003F68001F266
:1003C30008DFF48029E493A3F85407240CC8C3334B
:1003D300C4540F4420C8834004F456800146F6DF1A
:1003E300E4800B0102040810204080900016E47E94
:1003F300019360BCA3FF543F30E509541FFEE4930F
:10040300A360010ECF54C025E060A840B8E493A3D5
:10041300FAE493A3F8E493A3C8C582C8CAC583CA00
:10042300F0A3C8C582C8CAC583CADFE9DEE780BEB8
:0102470000B6
:00000001FF
