:0F075D0012076C7F647E001207981206C180FBA2
:08000300C28520A0FD02078662
:080786007F007E007D807C00F5
:01078E002248
:10001600C1846084009C200F0000000021000000C5
:100026000000230300000000256E000000002605E6
:1000360000000000221F000000003C00000000003D
:100046003D00000000003101000000003201000008
:1000560000003301000000003401000000003501FB
:10006600000000003601000000003058585858586B
:100076002A58585858582B56565656562C71000022
:1000860000002D77000000002E65000000002F699B
:1000960000000000E2FF0000000060840120200E46
:1000A600000000000000000000000000000000004A
:1000B600000000000000000000000000000000003A
:1000C600000000000000000000000000000000002A
:1000D600000000000000000000000000000000001A
:1000E600000000000000000000000000000000000A
:1000F60000000000000000000000000000000000FA
:1001060000000000000000000000000000000000E9
:1001160000000000000000000000000000000000D9
:1001260000006084000C00000000000001000000D8
:1001360000000300000000000500000000000600AB
:10014600000000000200000000001C00000000008B
:100156001D00000000001100000000001200000059
:10016600000013000000000014000000000015004D
:100176000000000016000000000010000000000053
:100186000A00000000000B00000000000C00000048
:1001960000000D00000000000E00000000000F002F
:1001A60000000000E200000000004600900700008A
:1001B600000000460000A000000000004601C261E9
:1001C60000000000004601A4E20000000000460115
:1001D600B0E10000000000460006277000000000A5
:1001E6004601B61100000000004600961700000008
:1001F60000004601BCA800000000004601AA00005D
:0A02060000000000C105021C00000A
:10023300E51C6003020387E51DB41B0040030203B2
:100243008790024BF828287302029C0202A1020243
:10025300A10202A40202AD0202B60202BF0202C858
:100263000202D10202DA0202E30202EB0202F30209
:1002730002FB02030302030B02031302031B020329
:100283002302032D02033702034102034B020355EA
:100293000202A1020376020381C2910203870203D1
:1002A3006D7B017A0079A20203647B017A0079A84D
:1002B3000203647B017A0079AE0203647B017A0056
:1002C30079B40203647B017A0079BA0203647B0187
:1002D3007A0079C00203647B017A0079C602036461
:1002E3007B017A0079F0803E7B017A0079CC8071C2
:1002F3007B017A0079D280697B017A0079D88061A9
:100303007B017A0079DE80597B017A0079E48051A0
:100313007B017A0079EA80187B017A0079F68006FE
:100323007B017A0079FC7D0680397B017A017902B1
:100333007D02802F7B017A0179087D0280257B0174
:100343007A01790E7D02801B7B017A0179147D028B
:1003530080117B013004067A00799C80047A01794C
:10036300207D027C00120600801A7FF47E011207B2
:10037300B38011300404D291800AC2918006751CA7
:0803830003751DE71206DD22DF
:1004D300E51C7049E51D14601414601314600E14B8
:1004E300602A14603224057034C291803080147BFA
:1004F300013004067A00799C80047A017920120580
:10050300FC801A7FF47E011207B38011300404D2F9
:1005130091800AC2918006751C03751DE71206DDE2
:0105230022B5
:10047B00E51C7050E51DB40800504990048DF82818
:10048B0028730204A50204CF0204A90204B10204DA
:10049B00B50204A50204BE0204C9C29180267B01E9
:1004AB007A0079008013D291801A7F967E00120712
:1004BB00B380117B017A0079061205FC8006751C4E
:0804CB0003751DE71206DD2296
:10052400E51C7044E51D14601524FE601A14601F58
:1005340014602414602C2406702ED291802A7F9695
:100544007E001207B380217B017A0179C2800E7B81
:10055400017A0179A480067B017A0079061205FCF0
:0C0564008006751C03751DE71206DD22E1
:0405FC007D027C0000
:0A0600008B258A2689278C288D2976
:10060A00E4FFFED3EF9529E5286480F8EE6480982C
:10061A00501BAB25AA26A9278F828E831205CFFDF0
:10062A0074142FF8A6050FBF00010E80D685281A6C
:06063A0085291B0207A147
:1006A000E4FFFE740E2FF8E6FD74AA2FF5827401A4
:1006B0003EF583EDF00FBF00010EEF64064E70E3D0
:0106C0002217
:1006DD00E51DB4E70CE51CB40307E4F51CF51DD3CB
:0B06ED0022051DE51D7002051CC32244
:0307B300020798A2
:10064000E4F5B1F5B2F5B3F5B4F5ACF5AD43B310DF
:1006500053B4EF43B38053B47F53B1FE43B201436D
:10066000B10253B2FD43E90153E9FB43EA0153EB05
:06067000FED2AAC2912295
:0A02100042037E0000420386000056
:0E076C0012064012074CC2061207AED2AF2290
:1006C100200118900386E0FEA3E0FFEE700DEF1409
:0C06D100600604700602072412077A225B
:10072400120233500E900387E004F07006900386A3
:04073400E004F022CB
:0C077A001205249001ABE06002B2962250
:03000B000205707B
:10057000C0E0C0F0C083C082C0D075D000C000C051
:1005800001C002C003C004C005C006C00730010B93
:1005900030030512073880031206F8D007D006D0C2
:1005A00005D004D003D002D001D000D0D0D082D06A
:0605B00083D0F0D0E03220
:0300130002000EDA
:05000E00D205B28232B0
:10021A00021A0006020C0000020A0000C101C10015
:08022A0002080000C103C1023B
:10074C005389F0438902758CFF758AF9D2A9D28C32
:01075C00227A
:1006F8007414250BF9E4FAFB120676740E250BF92F
:06070800E4FAFB020417F5
:100417008F218B228A238924E50D450C6002B29037
:10042700209050E50C7015E50D24F8700FD280C2AE
:1004370090E4F50CF50D12070E02078FC295E52122
:100447006004D2808002C280308113AB22AA23A924
:1004570024120676EF2524F524E43523F523E50D4C
:100467006407450C7005F50C750D07050DE50D7056
:0404770002050C224C
:10070E00E51B24FFFFE51A34FFFEEFB50B07EEB530
:06071E000A031207A922E4
:0507A900D295C20122FF
:09078F00050BE50B7002050A22BE
:100676001205B6FFC3E50D9407E50C64809480402F
:10068600055307018013C37407950DFE7401A80670
:09069600088002C333D8FC5207AE
:01069F002238
:10073800E50945086009E50915097007150822C289
:0407480003C20122C5
:090798008E088F09D203D2012260
:0507AE00A2069290225A
:0807A100E4F50AF50BD2012278
:0300000002038B6D
:0C038B00787FE4F6D8FD7581290203D2CA
:1005B600BB010689828A83E0225002E722BBFE0243
:0905C600E32289828A83E4932276
:1005CF00BB010CE58229F582E5833AF583E02250E1
:1005DF0006E92582F8E622BBFE06E92582F8E2222B
:0D05EF00E58229F582E5833AF583E4932245
:1003970002075DE493A3F8E493A34003F68001F218
:1003A70008DFF48029E493A3F85407240CC8C33367
:1003B700C4540F4420C8834004F456800146F6DF36
:1003C700E4800B0102040810204080900016E47EB0
:1003D700019360BCA3FF543F30E509541FFEE4932B
:1003E700A360010ECF54C025E060A840B8E493A3F2
:1003F700FAE493A3F8E493A3C8C582C8CAC583CA1D
:10040700F0A3C8C582C8CAC583CADFE9DEE780BED4
:0102320000CB
:00000001FF
