:0506F7007A994E22FF7C
:10022E0075135675142478157C007D007BFF7A06B5
:10023E0079F77E007F051200DEE4F5B1F5B2F5B375
:10024E00F5B4F5ACF5AD53B1FE43B201D296D28200
:10025E00D29212069FC2051206FCD201D2007B007A
:10026E007A0079131206F1851A2F20010D7B007A80
:10027E000079131206F1D201D2007F0A7E007D00B2
:10028E007C001203BBB296E523B43802B282E4F5C9
:03029E002380D7E3
:03000B00020536B5
:10053600C0E0C0F0C083C082C0D075D000C000C08B
:1005460001C002C003C004C005C006C007300103D5
:10055600120368D007D006D005D004D003D002D04D
:0E05660001D000D0D0D082D083D0F0D0E032CF
:1006840043F30143F30243F40843F31053F3F743F2
:0B069400F30443F34053F47FD2AF2285
:0C06B2008FF5E5F430E7FB53F47FAF1E3A
:0106BE002219
:080003008F1F438701AFF522B6
:0806DB00C28520A0FD0205AE5E
:1005AE00C2857F007E007D007C00E4FB30A00DEF55
:1005BE002401FFE43EFEE43DFDE43CFCD2857801DF
:1005CE0012018FC2850BBB18E3E4FBD28500C285F6
:0805DE000BBB01F7ED6480FD89
:0105E60022F2
:0E0651000536696E74657205316D61726B312C
:0107130022C3
:0107140022C2
:0107150022C1
:0107160022C0
:0107170022BF
:0A06BF00A292B39292E4FE33FF22F0
:10065F00012400012300052A0000000000052500E9
:10066F000000000002210000022F0000C103C18121
:04067F00C102C100F3
:10069F005389F0438901758CFF758AFBD2A9D2AFBC
:0306AF00D28C22C8
:100368003002177B007A0079241205E79204750899
:1003780000750900750A230202A1300035E53045F1
:100388002F7002D203742A2530F9E4FAFB1205E72C
:10039800920474252530F9E4F508F509890A120252
:1003A800A1E5302401FFE4352FFEEF64054E70020D
:0303B800C203225B
:1002A100750B00750C03E52245216002B290209088
:1002B1005CE521702AE52224F8702430030A053018
:1002C100E5307015052F8011D295D280D281C29070
:1002D100C200C201E4F52FF530E4F521F52222C276
:1002E10095300404D2808002C280E50C150CAE0B5F
:1002F1007002150B4E600E3081F0AB08AA09A90AF5
:0D03010012030F80E50522E52270020521A0
:01030E0022CC
:06030F008B0D8A0E890F20
:10031500120104FFE5224521701CEF54FEC433335E
:1003250033548012014AEFC313FFAB0DAA0EA90F78
:100335001201044F8029C3E5229408E521648094C5
:1003450080501FE522152270021521AE227401A8E6
:1003550006088002C333D8FC2FAB0DAA0EA90F12D5
:02036500014A4B
:010367002273
:1005E700120104FFE52245217003530701C3E522E9
:1005F7009408E521648094805015E5224521600F19
:10060700AE227401A806088002C333D8FC5207EF54
:050617006002D322C3C4
:01061C0022BB
:0706E3007B007A007923225D
:0706EA007B007A0079252254
:0606F100120104F52422B1
:060574008B4B8A4C894DFF
:10057A00E4FFFED3EF9405EE648094804025EF9467
:10058A0005EE64809480501BAB4BAA4CA94D8F8218
:10059A008E8312011DFD742A2FF8A6050FBF0001D4
:0305AA000E80D0F0
:0105AD00222B
:04070B00E4F52322CC
:04070F00E4F52422C7
:0906C9007B007A00792A02061D6B
:0906D2007B007A00792502061D67
:06061D008B4E8A4F89504C
:10062300E4FFFED3EF9405EE64809480401FEF94C3
:1006330005EE648094805015AB4EAA4FA9508F826B
:0D0643008E83E412015C0FBF00010E80D613
:010650002287
:0506FC00A2059290220E
:05070100D201D202222A
:05070600D201D2002227
:100455008F3E8E3D8D3C8C3B538EF7438901D28C6C
:10046500E4FFFEFDFCAB3EAA3DA93CA83BC312013F
:100475007E6025758A7E758CFF308DFDC28DE53ECB
:1004850024FFF53EE53D34FFF53DE53C34FFF53C05
:0B049500E53B34FFF53B80C8C28C2221
:1004A0008F428E418D408C3F538EF7438901D28C11
:1004B000E4FFFEFDFCAB42AA41A940A83FC31201E4
:1004C0007E6025758ACA758CFA308DFDC28DE54235
:1004D00024FFF542E54134FFF541E54034FFF540A6
:0B04E000E53F34FFF53F80C8C28C22CE
:1004EB008F468E458D448C43538EEF438910D28EAD
:1004FB00E4FFFEFDFCAB46AA45A944A843C3120189
:10050B007E6025758BEA758DCB308FFDC28FE546EE
:10051B0024FFF546E54534FFF545E54434FFF54446
:0B052B00E54334FFF54380C8C28E2278
:1003BB008F1D8E1C8D1B8C1A75C40743C408E4FF5C
:1003CB00FEFDFCAB1DAA1CA91BA81AC312017E6063
:1003DB002875C52C75C6CFE5C430E4FB53C4EFE5D7
:1003EB001D24FFF51DE51C34FFF51CE51B34FFF543
:0D03FB001BE51A34FFF51A80C553C4F72224
:100408008F4A8E498D488C4775C40743C408E4FF5A
:10041800FEFDFCAB4AAA49A948A847C312017E6061
:100428002875C5D875C6FFE5C430E4FB53C4EFE5AD
:100438004A24FFF54AE54934FFF549E54834FFF514
:0D04480048E54734FFF54780C553C4F7224F
:030000000201A258
:0C01A200787FE4F6D8FD7581500201E979
:10000E00E709F608DFFA8046E709F208DFFA803ED4
:10001E0088828C83E709F0A3DFFA8032E309F608C1
:10002E00DFFA8078E309F208DFFA807088828C8329
:10003E00E309F0A3DFFA806489828A83E0A3F608DD
:10004E00DFFA805889828A83E0A3F208DFFA804CB7
:10005E0080D280FA80C680D4806980F2803380108E
:10006E0080A680EA809A80A880DA80E280CA8033F7
:10007E0089828A83ECFAE493A3C8C582C8CCC5836F
:10008E00CCF0A3C8C582C8CCC583CCDFE9DEE7803F
:10009E000D89828A83E493A3F608DFF9ECFAA9F0BE
:1000AE00EDFB2289828A83ECFAE0A3C8C582C8CC14
:1000BE00C583CCF0A3C8C582C8CCC583CCDFEADE2D
:1000CE00E880DB89828A83E493A3F208DFF980CC8F
:1000DE0088F0EF60010E4E60C388F0ED2402B40488
:1000EE000050B9F582EB2402B4040050AF2323452F
:0600FE00822390005E73F6
:10010400BB010689828A83E0225002E722BBFE02F9
:09011400E32289828A83E493222C
:10011D00BB010CE58229F582E5833AF583E0225097
:10012D0006E92582F8E622BBFE06E92582F8E222E1
:0D013D00E58229F582E5833AF583E49322FB
:10014A00BB010689828A83F0225002F722BBFE0194
:02015A00F3228E
:10015C00F8BB010DE58229F582E5833AF583E8F0D9
:10016C00225006E92582C8F622BBFE05E92582C885
:02017C00F2226D
:10017E00EB9FF5F0EA9E42F0E99D42F0E89C45F0D7
:01018E00224E
:10018F00E8600FEFC333FFEE33FEED33FDEC33FCCE
:03019F00D8F12272
:1001AE0002022EE493A3F8E493A34003F68001F237
:1001BE0008DFF48029E493A3F85407240CC8C33352
:1001CE00C4540F4420C8834004F456800146F6DF21
:1001DE00E4800B0102040810204080900651E47E5A
:1001EE00019360BCA3FF543F30E509541FFEE49316
:1001FE00A360010ECF54C025E060A840B8E493A3DD
:10020E00FAE493A3F8E493A3C8C582C8CAC583CA07
:10021E00F0A3C8C582C8CAC583CADFE9DEE780BEBF
:010683000076
:00000001FF
