:0800030012090712086D80FBD1
:08093E00C28520A0FD02079311
:10079300C2857F007E007D007C00E4FB30A00DEF6E
:1007A3002401FFE43EFEE43DFDE43CFCD2857801F8
:1007B3001204C3C2850BBB18E3E4FBD28500C285D8
:0807C3000BBB01F7ED6480FDA2
:0107CB00220B
:0609550007000000000095
:1000160060840096200F0000000021000000000010
:10002600230300000000256E0000000026050000E6
:100036000000221F000000003C00000000003D0000
:100046000000000031010000000032010000000045
:1000560033010000000034010000000035010000FB
:1000660000003601000000003058585858582A58E9
:10007600585858582B56565656562C7100000000A4
:100086002D77000000002E65000000002F6900009B
:100096000000E2FF000000006084011A200E00004C
:1000A600000000000000000000000000000000004A
:1000B600000000000000000000000000000000003A
:1000C600000000000000000000000000000000002A
:1000D600000000000000000000000000000000001A
:1000E600000000000000000000000000000000000A
:1000F60000000000000000000000000000000000FA
:1001060000000000000000000000000000000000E9
:1001160000000000000000000000000000000000D9
:1001260060840012000000000000010000000000D2
:1001360003000000000005000000000006000000AB
:1001460000000200000000001C00000000001D006E
:100156000000000011000000000012000000000076
:10016600130000000000140000000000150000004D
:1001760000001600000000001000000000000A0049
:10018600000000000B00000000000C000000000052
:100196000D00000000000E00000000000F0000002F
:1001A6000000E20000000000460000A00000000081
:1001B600004601BC61000000000046019EE200000E
:1001C6000000004601AAE1000000000046000627E4
:1001D60070000000004601B011000000000046005B
:1001E6000C1700000000004601B6A8000000000041
:0F01F6004601A4000000000000C1050233000014
:10022A008B258A268927E5336003020383E534B4E4
:10023A001B004003020383900248F8282873020235
:10024A009902038302029E0202A10202AA0202B2D8
:10025A000202BA0202C20202CA0202D20202DA028C
:10026A0002E20202EA0202F20202FA0203020203B2
:10027A000A02031202031A0203290203380203477D
:10028A0002035602036502029E02037902037DC23B
:10029A0091020383020374AB25E527240602032F88
:1002AA00AB25E527240C807DAB25E5272412807534
:1002BA00AB25E5272418806DAB25E527241E80652C
:1002CA00AB25E5272424805DAB25E527242A805524
:1002DA00AB25E5272454803EAB25E527243080450D
:1002EA00AB25E5272436803DAB25E527243C803520
:1002FA00AB25E5272442802DAB25E5272448802518
:10030A00AB25E527244E801DAB25E527245A800618
:10031A00AB25E5272460F9E43526FA7D068044AB4F
:10032A0025E5272466F9E43526FA7D028035AB25D2
:10033A00E527246CF9E43526FA7D028026AB25E50B
:10034A00272472F9E43526FA7D028017AB25E527C2
:10035A002478F9E43526FA7D028008AB25AA26A975
:10036A00277D027C00120753800F12094E800AD2A1
:0D037A009180067533037534E7120889225F
:10070A008B1C8A1D891EE5337037E5341460141476
:10071A00601314600E14601D14602024057022C238
:10072A0091801E800BAB1CAA1DA91E12074F8011B7
:10073A0012094E800CA20492918006753303753417
:05074A00E712088922FE
:10056200E5337060E534B40A005059900574F828F8
:10057200287302059202059602059E0205C602052F
:10058200C60205A60205AA0205920205B50205C029
:10059200C29180309000017430F080287B017A0093
:1005A20079008015D291801C12094E12094E12094F
:1005B2004E80117B017A00790612074F800675334F
:0805C200037534E712088922D9
:10062E00E5337048E53424FE601624FE601D24FD7B
:10063E00602114602614602E24087030D291802C14
:10064E0012094E12094E12094E80217B017A017950
:10065E00BC800E7B017A01799E80067B017A00793F
:10066E000612074F80067533037534E71208892288
:04074F007D027C00AB
:0A0753008B288A29892A8C2B8D2C13
:10075D00E4FFFED3EF952CE52B6480F8EE648098D2
:10076D00501BAB28AA29A92A8F828E83120496FDCD
:10077D0074142FF8A6050FBF00010E80D6852B1A15
:06078D00852C1B02094649
:0D0915007B017A0079067D027C0002075309
:10084D00782D7C007D007BFF7A0979557E007F062F
:10085D001204577B007A00792D7D017C000207532D
:10082C00E4FFFE740E2FF8E6FD74A42FF58274011C
:10083C003EF583EDF00FBF00010EEF64064E70E342
:01084C002289
:10088900E534B4E70CE533B40307E4F533F534D3C1
:0B089900220534E53470020533C32251
:07094E007FB87E0B020935A2
:01096800226C
:03096500A2942237
:0A092200A292B39292E4FE33FF228A
:1007CC00E4F5B1F5B2F5B3F5B4F5ACF5AD43B31052
:1007DC0053B4EF43B38053B47F53B1FE43B20143E0
:1007EC00B10253B2FD43E90153E9FB43EA0153EB78
:0607FC00FED2AAC2912208
:0C0205004201C400004201C20002C10618
:0E0907001207CC1208F6C207120960D2AF2206
:10086D002001189001C4E0FEA3E0FFEE700DEF141F
:0C087D00600604700602067E1208E422E9
:10067E009001C2E0FEA3E0FFEE703AEF24FE601C94
:10068E000470327B017A01791A12022A500E9001FF
:10069E00C5E004F070069001C4E004F07B017A001E
:1006AE00799612022A500E9001C5E004F070069061
:0606BE0001C4E004F0227B
:1008E40012062E5002B2829001A5E064306002B27A
:0208F40096224A
:03000B000206C426
:1006C400C0E0C0F0C083C082C0D075D000C000C0FC
:1006D40001C002C003C004C005C006C00730010B3E
:1006E4003003051208D080031208A4D007D006D026
:1006F40005D004D003D002D001D000D0D0D082D015
:0607040083D0F0D0E032CA
:0300130002000EDA
:05000E00D205B28232B0
:10021100021A0006020C0000020A0000C101C1001E
:0802210002080000C103C10244
:1008F6005389F0438902758CFF758AF9D2A9D28C87
:0109060022CE
:1008A4007414250BF9E4FAFB120802740E250BF9F3
:0608B400E4FAFB0205CA94
:1005CA008F218B228A238924E50D450C6002B29083
:1005DA00209050E50C7015E50D24F8700FD280C2FA
:1005EA0090E4F50CF50D1208BA02092CC295E52122
:1005FA006004D2808002C280308113AB22AA23A970
:10060A0024120802EF2524F524E43523F523E50D09
:10061A006407450C7005F50C750D07050DE50D70A1
:04062A0002050C2297
:1008BA00E51B24FFFFE51A34FFFEEFB50B07EEB583
:0608CA000A0312095B2283
:05095B00D295C201224B
:09092C00050BE50B7002050A221F
:1008020012047DFFC3E50D9407E50C6480948040DB
:10081200055307018013C37407950DFE7401A806E2
:09082200088002C333D8FC520720
:01082B0022AA
:1008D000E50945086009E50915097007150822C2F0
:0408E00003C201222C
:090935008E088F09D203D20122C1
:05096000A207929022A5
:08094600E4F50AF50BD20122D1
:030000000204D621
:0C04D600787FE4F6D8FD75813402051D26
:10038700E709F608DFFA8046E709F208DFFA803E58
:1003970088828C83E709F0A3DFFA8032E309F60845
:1003A700DFFA8078E309F208DFFA807088828C83AD
:1003B700E309F0A3DFFA806489828A83E0A3F60861
:1003C700DFFA805889828A83E0A3F208DFFA804C3B
:1003D70080D280FA80C680D4806980F28033801012
:1003E70080A680EA809A80A880DA80E280CA80337B
:1003F70089828A83ECFAE493A3C8C582C8CCC583F3
:10040700CCF0A3C8C582C8CCC583CCDFE9DEE780C2
:100417000D89828A83E493A3F608DFF9ECFAA9F041
:10042700EDFB2289828A83ECFAE0A3C8C582C8CC97
:10043700C583CCF0A3C8C582C8CCC583CCDFEADEB0
:10044700E880DB89828A83E493A3F208DFF980CC12
:1004570088F0EF60010E4E60C388F0ED2402B4040B
:100467000050B9F582EB2402B4040050AF232345B2
:0604770082239003D773FD
:10047D00BB010689828A83E0225002E722BBFE027D
:09048D00E32289828A83E49322B0
:10049600BB010CE58229F582E5833AF583E022501B
:1004A60006E92582F8E622BBFE06E92582F8E22265
:0D04B600E58229F582E5833AF583E493227F
:1004C300E8600FEFC333FFEE33FEED33FDEC33FC97
:0304D300D8F1223B
:1004E200020003E493A3F8E493A34003F68001F22D
:1004F20008DFF48029E493A3F85407240CC8C3331B
:10050200C4540F4420C8834004F456800146F6DFE9
:10051200E4800B0102040810204080900016E47E63
:10052200019360BCA3FF543F30E509541FFEE493DE
:10053200A360010ECF54C025E060A840B8E493A3A5
:10054200FAE493A3F8E493A3C8C582C8CAC583CAD0
:10055200F0A3C8C582C8CAC583CADFE9DEE780BE88
:0102290000D4
:00000001FF
