:10091B0012082912092DC20312000ED2AF1208B60B
:02092B0080FB4F
:08000300C28520A0FD0207895F
:10078900C2857F007E007D007C00E4FB30A00DEF78
:100799002401FFE43EFEE43DFDE43CFCD285780102
:1007A900120376C2850BBB18E3E4FBD28500C28530
:0807B9000BBB01F7ED6480FDAC
:0107C1002215
:0609650007000000000085
:1000160060840090200F00000000213F00000000D7
:1000260023030000000025780000000026070000DA
:1000360000002203000000003C00000000003D001C
:100046000000000031010000000032010000000045
:1000560033010000000034010000000035010000FB
:1000660000003601000000003058585858582A58E9
:10007600585858582B56565656562C7100000000A4
:100086002D77000000002E65000000002F6900009B
:100096000000E2FF000000006084000C0000000089
:1000A6000000010000000000030000000000050041
:1000B6000000000006000000000002000000000032
:1000C6001C00000000001D000000000011000000E0
:1000D60000001200000000001300000000001400E1
:1000E60000000000150000000000160000000000DF
:1000F6001000000000000A00000000000B000000D5
:1001060000000C00000000000D00000000000E00C2
:10011600000000000F0000000000E20000000000E8
:1001260060840114200E00000000000000000000A2
:1001360000000000000000000000000000000000B9
:1001460000000000000000000000000000000000A9
:100156000000000000000000000000000000000099
:100166000000000000000000000000000000000089
:100176000000000000000000000000000000000079
:100186000000000000000000000000000000000069
:100196000000000000000000000000000000000059
:1001A6000000000000000000C105021E0000021C45
:1001B600000146019E000000000000460000A0006D
:1001C600000000004601BC610000000000460198E6
:1001D600E200000000004601A4E100000000004625
:1001E60000062770000000004601AA11000000006A
:1001F600004601B01700000000004601B6A8000046
:03020600000000F5
:100389008B248A258926E51E60030204E2E51FB451
:100399001B0040030204E29003A7F8282873020314
:1003A900F80204E20203FD02040002040902041136
:1003B9000204190204210204290204310204390247
:1003C900044102044902045102045902046102046D
:1003D900690204710204790204880204970204A6DE
:1003E9000204B50204C40203FD0204D80204DCC2FB
:1003F900910204E20204D3AB24E526240602048E0A
:10040900AB24E526240C807DAB24E52624128075D7
:10041900AB24E5262418806DAB24E526241E8065CF
:10042900AB24E5262424805DAB24E526242A8055C7
:10043900AB24E5262454803EAB24E52624308045B0
:10044900AB24E5262436803DAB24E526243C8035C3
:10045900AB24E5262442802DAB24E52624488025BB
:10046900AB24E526244E801DAB24E526245A8006BC
:10047900AB24E5262460F9E43525FA7D068044ABF2
:1004890024E5262466F9E43525FA7D028035AB2476
:10049900E526246CF9E43525FA7D028026AB24E5AE
:1004A900262472F9E43525FA7D028017AB24E52666
:1004B9002478F9E43525FA7D028008AB24AA25A918
:1004C900267D027C00120638800F12095E800AD24E
:0D04D900918006751E03751FE71208D222E0
:100704008B328A338934E51E7037E51F1460141464
:10071400601314600E14601D14602024057022C23E
:1007240091801E800BAB32AA33A934120634801197
:1007340012095E800CA20492918006751E03751F37
:05074400E71208D222BB
:10057200E51E7058E51FB408005051900584F82814
:10058200287302059C0205A00205A80205B1020516
:10059200B90205BD02059C0205C8C291802E9000D9
:1005A20001E51DF080267A007900120632801D05D1
:1005B2001DE51D7002051CD291801112095E1209FF
:1005C2005E12095E8006751E03751FE71208D222AD
:10074900E51E7038E51F24FE601624FE601714604C
:100759001914601624FD601E24087020D291801C93
:1007690012095E801712087A80077A0179BC12068D
:10077900321208598006751E03751FE71208D22226
:060632007B017D027C004B
:0A0638008B278A2889298C2A8D2B34
:10064200E4FFFED3EF952BE52A6480F8EE648098F0
:10065200501BAB27AA28A9298F828E83120337FD4C
:1006620074142FF8A6050FBF00010E80D6852A1A32
:06067200852B1B02097339
:0D093E007B017A0079067D027C00020638FC
:10087A00782C7C007D007BFF7A0979657E007F06F3
:10088A001202F87B007A00792C7D017C000206387E
:10085900E4FFFE740E2FF8E6FD749E2FF5827401F5
:100869003EF583EDF00FBF00010EEF64064E70E315
:01087900225C
:1008D200E51FB4E70CE51EB40307E4F51EF51FD3CC
:0B08E20022051FE51F7002051EC32247
:07095E007F1E7E0002095517
:01097600225E
:03097000A294222C
:0A094B00A292B39292E4FE33FF2261
:10082900E4F5B1F5B2F5B3F5B4F5ACF5AD43B310F4
:1008390053B4EF43B38053B47F53B1FE43B2014382
:10084900E90153E9FB43EA0153EBFED2AAC2912223
:10020900021A0006020C0000020A0000C1000208DE
:040219000000C1011F
:10092D005389F0438901758CFF758AFDD2A9D28C4C
:01093D002297
:10089A007414250BF9E4FAFB1207C29202740E25AE
:0C08AA000BF9E4F521F52289230205D2A8
:1005D200E50D450C6002B290209054E50C7036E5B2
:1005E2000D24F87030D280D281C290E4F50CF50D62
:1005F200E51B24FFFFE51A34FFFEEFB50B0EEEB547
:100602000A0AD295E4F50AF50BC20022050BE50BA6
:10061200701D050A22C295A2029280308109AB2187
:10062200AA22A9231207F8050DE50D7002050C2276
:1007F80012031EFFE50D450C70047480801FC3E5CD
:100808000D9408E50C648094805015E50D14FE7471
:1008180001A806088002C333D8FC2FFFEF12036437
:0108280022AD
:1007C20012031EFFE50D450C7003530701C3E50D2F
:1007D2009408E50C648094805015E50D450C600F7B
:1007E200AE0D7401A806088002C333D8FC5207EF8D
:0507F2006002D322C3E8
:0107F70022DF
:10090700E50945086009E50915097007150822C2B8
:0409170001C20022F7
:090955008E088F09D201D20022A4
:05000E00A20392902204
:03097300D200228D
:0A021D004201C400004201C20002C9
:1008B6002000189001C4E0FEA3E0FFEE700DEF14D7
:0C08C60060060470060206781208ED229D
:100678009001C2E0FEA3E0FFEE703AEF24FE601C9A
:100688000470327B017A017914120389500E9001AB
:10069800C5E004F070069001C4E004F07B017A0024
:1006A8007990120389500E9001C5E004F07006900D
:0606B80001C4E004F02281
:1008ED007B017A00790C120389500E9001C5E0044A
:0A08FD00F070069001C4E004F02240
:03000B000206BE2C
:1006BE00C0E0C0F0C083C082C0D075D000C000C002
:1006CE0001C002C003C004C005C006C00730000B45
:1006DE00300105120907800312089AD007D006D000
:1006EE0005D004D003D002D001D000D0D0D082D01B
:0606FE0083D0F0D0E032D1
:0300130002096B74
:05096B00D205B282324A
:030000000204E611
:0C04E600787FE4F6D8FD75813402052D06
:10022800E709F608DFFA8046E709F208DFFA803EB8
:1002380088828C83E709F0A3DFFA8032E309F608A5
:10024800DFFA8078E309F208DFFA807088828C830D
:10025800E309F0A3DFFA806489828A83E0A3F608C1
:10026800DFFA805889828A83E0A3F208DFFA804C9B
:1002780080D280FA80C680D4806980F28033801072
:1002880080A680EA809A80A880DA80E280CA8033DB
:1002980089828A83ECFAE493A3C8C582C8CCC58353
:1002A800CCF0A3C8C582C8CCC583CCDFE9DEE78023
:1002B8000D89828A83E493A3F608DFF9ECFAA9F0A2
:1002C800EDFB2289828A83ECFAE0A3C8C582C8CCF8
:1002D800C583CCF0A3C8C582C8CCC583CCDFEADE11
:1002E800E880DB89828A83E493A3F208DFF980CC73
:1002F80088F0EF60010E4E60C388F0ED2402B4046C
:100308000050B9F582EB2402B4040050AF23234512
:06031800822390027873BD
:10031E00BB010689828A83E0225002E722BBFE02DD
:09032E00E32289828A83E4932210
:10033700BB010CE58229F582E5833AF583E022507B
:1003470006E92582F8E622BBFE06E92582F8E222C5
:0D035700E58229F582E5833AF583E49322DF
:10036400BB010689828A83F0225002F722BBFE0178
:02037400F32272
:10037600E8600FEFC333FFEE33FEED33FDEC33FCE5
:03038600D8F12289
:1004F20002091BE493A3F8E493A34003F68001F2FC
:1005020008DFF48029E493A3F85407240CC8C3330A
:10051200C4540F4420C8834004F456800146F6DFD9
:10052200E4800B0102040810204080900016E47E53
:10053200019360BCA3FF543F30E509541FFEE493CE
:10054200A360010ECF54C025E060A840B8E493A395
:10055200FAE493A3F8E493A3C8C582C8CAC583CAC0
:10056200F0A3C8C582C8CAC583CADFE9DEE780BE78
:0102270000D6
:00000001FF
