:10073F0012078A7F647E001207AB1206C21207C926
:04074F00928280F61C
:08000300C28520A0FD0207CC1C
:0107CC00220A
:100016006084009C200F000000002100000000000A
:10002600230300000000256E0000000026050000E6
:100036000000221F000000003C00000000003D0000
:100046000000000031010000000032010000000045
:1000560033010000000034010000000035010000FB
:1000660000003601000000003058585858582A58E9
:10007600585858582B56565656562C7100000000A4
:100086002D77000000002E65000000002F6900009B
:100096000000E2FF0000000060840120200E000046
:1000A600000000000000000000000000000000004A
:1000B600000000000000000000000000000000003A
:1000C600000000000000000000000000000000002A
:1000D600000000000000000000000000000000001A
:1000E600000000000000000000000000000000000A
:1000F60000000000000000000000000000000000FA
:1001060000000000000000000000000000000000E9
:1001160000000000000000000000000000000000D9
:100126006084000C000000000000010000000000D8
:1001360003000000000005000000000006000000AB
:1001460000000200000000001C00000000001D006E
:100156000000000011000000000012000000000076
:10016600130000000000140000000000150000004D
:1001760000001600000000001000000000000A0049
:10018600000000000B00000000000C000000000052
:100196000D00000000000E00000000000F0000002F
:1001A6000000E2000000000046009007000000008A
:1001B60000460000A000000000004601C2610000E9
:1001C6000000004601A4E200000000004601B0E184
:1001D60000000000004600062770000000004601EF
:1001E600B61100000000004600961700000000004F
:1001F6004601BCA800000000004601AA000000005D
:080206000000C105022D0000FB
:100233008B258A268927E52D6003020390E52EB4DA
:100243001B004003020390900251F8282873020216
:10025300A20202A70202A70202AA0202B30202BB7F
:100263000202C30202CB0202D30202DB0202E30256
:1002730002EB0202F30202FB02030302030B02037B
:100283001302031B0203230203320203410203503E
:1002930002035F02036E0202A702038602038AC2FD
:1002A3009102039002037DAB25E527240602033860
:1002B300AB25E527240C807DAB25E527241280752B
:1002C300AB25E5272418806DAB25E527241E806523
:1002D300AB25E5272424805DAB25E527242A80551B
:1002E300AB25E5272454803EAB25E5272430804504
:1002F300AB25E5272436803DAB25E527243C803517
:10030300AB25E5272442802DAB25E527244880250E
:10031300AB25E527244E801DAB25E527245A80060F
:10032300AB25E5272460F9E43526FA7D068044AB46
:1003330025E5272466F9E43526FA7D028035AB25C9
:10034300E527246CF9E43526FA7D028026AB25E502
:10035300272472F9E43526FA7D028017AB25E527B9
:100363002478F9E43526FA7D028008AB25AA26A96C
:10037300277D027C0012060180137FF47E011207A1
:10038300C6800AD2918006752D03752EE71206DE0C
:010393002247
:100528008B1C8A1D891EE52D703BE52E1460141462
:10053800601314600E14602114602424057026C210
:10054800918022800BAB1CAA1DA91E1205FD8015E7
:100558007FF47E011207C6800CA204929180067572
:090568002D03752EE71206DE22B8
:10048400E52D7050E52EB408005049900496F828E4
:1004940028730204AE0204D80204B20204BA0204AD
:1004A400BE0204AE0204C70204D2C29180267B01BC
:1004B4007A0079008013D291801A7F967E00120709
:1004C400C680117B017A0079061205FD8006752D20
:0804D40003752EE71206DE227B
:1004DC00E52D7044E52E14601524FE601A14601F7F
:1004EC0014602414602C2406702ED291802A7F96DE
:1004FC007E001207C680217B017A0179C2800E7BB7
:10050C00017A0179A480067B017A0079061205FD37
:0C051C008006752D03752EE71206DE2206
:0405FD007D027C00FF
:0A0601008B288A29892A8C2B8D2C66
:10060B00E4FFFED3EF952CE52B6480F8EE64809825
:10061B00501BAB28AA29A92A8F828E831205D0FDE5
:10062B0074142FF8A6050FBF00010E80D6852B1A68
:06063B00852C1B0207B430
:1006A100E4FFFE740E2FF8E6FD74AA2FF5827401A3
:1006B1003EF583EDF00FBF00010EEF64064E70E3CF
:0106C1002216
:1006DE00E52EB4E70CE52DB40307E4F52DF52ED386
:0B06EE0022052EE52E7002052DC32210
:0307C6000207AB7C
:0107CD002209
:0307C900A29422D5
:0A079800A292B39292E4FE33FF2216
:10064100E4F5B1F5B2F5B3F5B4F5ACF5AD43B310DE
:1006510053B4EF43B38053B47F53B1FE43B201436C
:10066100B10253B2FD43E90153E9FB43EA0153EB04
:06067100FED2AAC2912294
:0C020E004201CA00004201C80002C10603
:0E078A00120641120779C2071207C1D2AF2230
:1006C2002001189001CAE0FEA3E0FFEE700DEF14C6
:0C06D20060060470060206F91207672299
:1006F9007B017A00799C120233500E9001CBE00401
:0A070900F070069001CAE004F0222F
:100767001204DC5002B2829001ABE064306002B246
:020777009622C8
:03000B000205717A
:10057100C0E0C0F0C083C082C0D075D000C000C050
:1005810001C002C003C004C005C006C00730010B92
:100591003003051207538003120713D007D006D08A
:1005A10005D004D003D002D001D000D0D0D082D069
:0605B10083D0F0D0E0321F
:0300130002000EDA
:05000E00D205B28232B0
:10021A00021A0006020C0000020A0000C101C10015
:08022A0002080000C103C1023B
:100779005389F0438902758CFF758AF9D2A9D28C05
:01078900224D
:100713007414250BF9E4FAFB120677740E250BF912
:06072300E4FAFB020420D1
:100420008F218B228A238924E50D450C6002B2902E
:10043000209050E50C7015E50D24F8700FD280C2A5
:1004400090E4F50CF50D1207290207A2C295E521EB
:100450006004D2808002C280308113AB22AA23A91B
:1004600024120677EF2524F524E43523F523E50D42
:100470006407450C7005F50C750D07050DE50D704D
:0404800002050C2243
:10072900E51B24FFFFE51A34FFFEEFB50B07EEB515
:060739000A031207BC22B6
:0507BC00D295C20122EC
:0907A200050BE50B7002050A22AB
:100677001205B7FFC3E50D9407E50C64809480402D
:10068700055307018013C37407950DFE7401A8066F
:09069700088002C333D8FC5207AD
:0106A0002237
:10075300E50945086009E50915097007150822C26E
:0407630003C20122AA
:0907AB008E088F09D203D201224D
:0507C100A20792902246
:0807B400E4F50AF50BD2012265
:0300000002039464
:0C039400787FE4F6D8FD75812E0203DBB3
:1005B700BB010689828A83E0225002E722BBFE0242
:0905C700E32289828A83E4932275
:1005D000BB010CE58229F582E5833AF583E02250E0
:1005E00006E92582F8E622BBFE06E92582F8E2222A
:0D05F000E58229F582E5833AF583E4932244
:1003A00002073FE493A3F8E493A34003F68001F22D
:1003B00008DFF48029E493A3F85407240CC8C3335E
:1003C000C4540F4420C8834004F456800146F6DF2D
:1003D000E4800B0102040810204080900016E47EA7
:1003E000019360BCA3FF543F30E509541FFEE49322
:1003F000A360010ECF54C025E060A840B8E493A3E9
:10040000FAE493A3F8E493A3C8C582C8CAC583CA13
:10041000F0A3C8C582C8CAC583CADFE9DEE780BECB
:0102320000CB
:00000001FF
