:1007C7001206EF1207D9C20312000ED2AF12077C2E
:0207D70080FBA5
:08000300C28520A0FD02064F9A
:10064F00C2857F007E007D007C00E4FB30A00DEFB3
:10065F002401FFE43EFEE43DFDE43CFCD28578013D
:10066F001202E1C2850BBB18E3E4FBD28500C28501
:08067F000BBB01F7ED6480FDE7
:010687002250
:06082C00070000000000BF
:100016006084008A200F00000000213F00000000DD
:1000260023030000000025780000000026070000DA
:1000360000002203000000003C00000000003D001C
:100046000000000031010000000032010000000045
:1000560033010000000034010000000035010000FB
:1000660000003601000000003058585858582A58E9
:10007600585858582B56565656562C7100000000A4
:100086002D77000000002E65000000002F6900009B
:100096000000E2FF0000000060840006200F000060
:1000A6000000213F00000000230300000000257827
:1000B60000000000260700000000220300000000E8
:1000C6003C00000000003D0000000000310100007F
:1000D600000032010000000033010000000034017E
:1000E600000000003501000000003601000000009D
:1000F6003058585858582A58585858582B56565603
:1001060056562C71000000002D77000000002E6569
:10011600000000002F6900000000E2FF0000000060
:10012600C104021C000046019800000000000046C1
:1001360001B6610000000000460192E200000000E6
:100146000046019EE1000000000046000027700006
:100156000000004601A41100000000004601AA1795
:0E01660000000000004601B0A80000000000EC
:1002F4008B248A258926E51C600302044DE51DB480
:100304001B00400302044D900312F82828730203D3
:100314006302044D02036802036B02037402037C4C
:1003240002038402038C02039402039C0203A402CA
:1003340003AC0203B40203BC0203C40203CC0203F1
:10034400D40203DC0203E40203F3020402020411F4
:1003540002042002042F020368020443020447C279
:100364009102044D02043EAB24E52624060203F95F
:10037400AB24E526240C807DAB24E526241280756D
:10038400AB24E5262418806DAB24E526241E806565
:10039400AB24E5262424805DAB24E526242A80555D
:1003A400AB24E5262454803EAB24E5262430804546
:1003B400AB24E5262436803DAB24E526243C803559
:1003C400AB24E5262442802DAB24E5262448802551
:1003D400AB24E526244E801DAB24E526245A800652
:1003E400AB24E5262460F9E43525FA7D068044AB88
:1003F40024E5262466F9E43525FA7D028035AB240C
:10040400E526246CF9E43525FA7D028026AB24E543
:10041400262472F9E43525FA7D028017AB24E526FB
:100424002478F9E43525FA7D028008AB24AA25A9AD
:10043400267D027C0012060F800F120825800AD246
:0D044400918006751C03751DE712079822B4
:0E07EA00E51D7006E51C7002C29112079822F0
:10053D00E51C703EE51D24FE601624FE6017146058
:10054D001914601624FD602424087026D29180228F
:10055D00120825801D120740800D7B017A0179B6A6
:10056D007D037C0012060F12071F8006751C037594
:06057D001DE712079822A1
:0A060F008B2A8A2B892C8C2D8D2E4E
:10061900E4FFFED3EF952EE52D6480F8EE64809813
:10062900501BAB2AAA2BA92C8F828E831202A2FD02
:1006390074142FF8A6050FBF00010E80D6852D1A58
:06064900852E1B02083A99
:0D07F8007B017A0079007D027C0002060F73
:1007400078247C007D007BFF7A08792C7E007F0670
:100750001202637B007A0079247D017C0002060F7F
:10071F00E4FFFE740E2FF8E6FD74982FF582740136
:10072F003EF583EDF00FBF00010EEF64064E70E350
:01073F002297
:10079800E51DB4E70CE51CB40307E4F51CF51DD30F
:0B07A80022051DE51D7002051CC32288
:070825007F0A7E0002081C9F
:01083D002298
:03083700A2942266
:0A081200A292B39292E4FE33FF229B
:1006EF00E4F5B1F5B2F5B3F5B4F5ACF5AD43B31030
:1006FF0053B4EF43B38053B47F53B1FE43B20143BE
:10070F00E90153E9FB43EA0153EBFED2AAC291225E
:10017400021A0006020C0000020A0000C100020874
:040184000000C101B5
:1007D9005389F0438901758CFF758AFDD2A9D28CA2
:0107E90022ED
:100760007414250BF9E4FAFB1206889202740E2524
:0C0770000BF9E4F521F52289230204DDD9
:1004DD00E50D450C6002B290209054E50C7036E5A8
:1004ED000D24F87030D280D281C290E4F50CF50D58
:1004FD00E51B24FFFFE51A34FFFEEFB50B0EEEB53D
:10050D000A0AD295E4F50AF50BC20022050BE50B9C
:10051D00701D050A22C295A2029280308109AB217D
:10052D00AA22A9231206BE050DE50D7002050C22A7
:1006BE00120289FFE50D450C70047480801FC3E59E
:1006CE000D9408E50C648094805015E50D14FE74AD
:1006DE0001A806088002C333D8FC2FFFEF1202CF09
:0106EE0022E9
:10068800120289FFE50D450C7003530701C3E50D00
:100698009408E50C648094805015E50D450C600FB6
:1006A800AE0D7401A806088002C333D8FC5207EFC8
:0506B8006002D322C323
:0106BD00221A
:1007B300E50945086009E50915097007150822C20E
:0407C30001C200224D
:09081C008E088F09D201D20022DE
:05000E00A20392902204
:03083A00D20022C7
:0A0188004201BE00004201BC00026B
:10077C002000189001BEE0FEA3E0FFEE700DEF1418
:0C078C00600604700602058312080522B6
:100583009001BCE0FEA3E0FFEE703AEF24FE601C96
:100593000470327B017A01790E1202F4500E90013D
:1005A300BFE004F070069001BEE004F07B017A0026
:1005B300798A1202F4500E9001BFE004F0700690A5
:0605C30001BEE004F0227D
:0D08050012053D900198E0B47802B29622F1
:03000B000205C922
:1005C900C0E0C0F0C083C082C0D075D000C000C0F8
:1005D90001C002C003C004C005C006C00730000B3B
:1005E9003001051207B38003120760D007D006D087
:1005F90005D004D003D002D001D000D0D0D082D011
:0606090083D0F0D0E032C6
:03001300020832AE
:05083200D204B2823285
:03000000020451A6
:0C045100787FE4F6D8FD75812E02049837
:10019300E709F608DFFA8046E709F208DFFA803E4E
:1001A30088828C83E709F0A3DFFA8032E309F6083B
:1001B300DFFA8078E309F208DFFA807088828C83A3
:1001C300E309F0A3DFFA806489828A83E0A3F60857
:1001D300DFFA805889828A83E0A3F208DFFA804C31
:1001E30080D280FA80C680D4806980F28033801008
:1001F30080A680EA809A80A880DA80E280CA803371
:1002030089828A83ECFAE493A3C8C582C8CCC583E8
:10021300CCF0A3C8C582C8CCC583CCDFE9DEE780B8
:100223000D89828A83E493A3F608DFF9ECFAA9F037
:10023300EDFB2289828A83ECFAE0A3C8C582C8CC8D
:10024300C583CCF0A3C8C582C8CCC583CCDFEADEA6
:10025300E880DB89828A83E493A3F208DFF980CC08
:1002630088F0EF60010E4E60C388F0ED2402B40401
:100273000050B9F582EB2402B4040050AF232345A8
:0602830082239001E373E9
:10028900BB010689828A83E0225002E722BBFE0273
:09029900E32289828A83E49322A6
:1002A200BB010CE58229F582E5833AF583E0225011
:1002B20006E92582F8E622BBFE06E92582F8E2225B
:0D02C200E58229F582E5833AF583E4932275
:1002CF00BB010689828A83F0225002F722BBFE010E
:0202DF00F32208
:1002E100E8600FEFC333FFEE33FEED33FDEC33FC7B
:0302F100D8F1221F
:10045D000207C7E493A3F8E493A34003F68001F2E7
:10046D0008DFF48029E493A3F85407240CC8C333A0
:10047D00C4540F4420C8834004F456800146F6DF6F
:10048D00E4800B0102040810204080900016E47EE9
:10049D00019360BCA3FF543F30E509541FFEE49364
:1004AD00A360010ECF54C025E060A840B8E493A32B
:1004BD00FAE493A3F8E493A3C8C582C8CAC583CA56
:1004CD00F0A3C8C582C8CAC583CADFE9DEE780BE0E
:01019200006C
:00000001FF
