:1007500012072312073DC20112000E1206EC80FBA5
:08000300C28520A0FD0205EFFB
:1005EF00C2857F007E007D007C00E4FB30A00DEF14
:1005FF002401FFE43EFEE43DFDE43CFCD28578019E
:10060F001202E4C2850BBB18E3E4FBD28500C2855E
:08061F000BBB01F7ED6480FD47
:0106270022B0
:0607850007000000000067
:1002F70060840006200F00000000213F000000007E
:10030700230300000000254C000000002607000022
:1003170000002202000000003C03000000003D0630
:100327000000000031010000000032010000000061
:100337003301000000003401000000003501000017
:10034700000036010000000030585858584F2A580E
:100357005858584F2B56565656722C7100000000AD
:100367002D77000000002E65000000002F690000B7
:100377000000E2FF00000000021A0000460114001E
:100387000000000000460120610600000000460151
:100397000EE2FF0000000046011AE1FF0000000026
:0903A70046000027700000000070
:100016008B248A258926E51A6003020192E51BB422
:1000260017004003020192900034F828287302005A
:100036007902007E02008C0200950200A30200B144
:100046000200BF0200CD0200DA0200E20200EF0267
:1000560000FC02010902011602012302013002011D
:100066003802014702015602016502017402018845
:1000760002018CC2910201927F0A7E007D007C0003
:10008600120000020192AB24AA25A926020152AB56
:1000960024E5262406F9E43525FA020152AB24E5C7
:1000A60026240CF9E43525FA020152AB24E5262470
:1000B60012F9E43525FA020152AB24E5262418F993
:1000C600E43525FA020152AB24E526241EF9E4356F
:1000D60025FA8078AB24E5262454805CAB24E526FB
:1000E6002430F9E43525FA8063AB24E5262436F975
:1000F600E43525FA8056AB24E526243CF9E435257B
:10010600FA8049AB24E5262442F9E43525FA803CF9
:10011600AB24E5262448F9E43525FA802FAB24E5FF
:1001260026244EF9E43525FA8022AB24E526245A06
:100136008006AB24E5262460F9E43525FA7D0680A1
:100146003AAB24E5262466F9E43525FA7D02802BB0
:10015600AB24E526246CF9E43525FA7D02801CAB38
:1001660024E5262472F9E43525FA7D02800DAB24B8
:10017600E5262478F9E43525FA7D027C001205711E
:10018600800AD2918006751A03751BE712070822AA
:0E076000E51B7006E51A7002C291120708220E
:10045500E51A706EE51BB40A005067900467F8282A
:10046500287302048502048902048E0204900204A2
:100475008E0204A20204AA0204B90204BD0204C544
:10048500C291803E1206B08039800D3002087B0192
:100495007A0179208015C32212068F80257B017A87
:1004A50001790E80067B017A0079007D027C0012BD
:1004B5000571800ED291800A751A03751BE78002BB
:0604C500C202120708222A
:0A0571008B2A8A2B892C8C2D8D2EED
:10057B00E4FFFED3EF952EE52D6480F8EE648098B2
:10058B00501BAB2AAA2BA92C8F828E831202A5FD9E
:10059B0074122FF8A6050FBF00010E80D6852D18FB
:0605AB00852E19020797DE
:0D076E007B017A0079007D027C000205719C
:1006B00078247C007D007BFF7A0779857E007F06A9
:1006C0001202667B007A0079247D017C00020571AC
:10068F00E4FFFE740C2FF8E6FD74142FF58274014D
:10069F003EF583EDF00FBF00010EEF64064E70E3E1
:0106AF002228
:10070800E51BB4E70CE51AB40307E4F51AF51BD3A7
:0B07180022051BE51B7002051AC3221E
:01079A00223C
:03079400A294220A
:0A077B00A292B39292E4FE33FF2233
:10072300E4F5B1F5B2F5B3F5B4F5ACF5AD43B310FB
:0A07330053B4EF53B1FE43B20122AC
:0E03B00002180006020A000002080000C10345
:10073D005389F0438901758CFF758AFBD2A9D2AF1D
:03074D00D28C2229
:1006D00074122509F9E4FAFB1206289200740C251D
:0C06E00009F9E4F521F52289230204CB7E
:1004CB00E50B450A6002B290209054E50A7036E5C0
:1004DB000B24F87030D280D281C290E4F50AF50B70
:1004EB00E51924FFFFE51834FFFEEFB5090EEEB555
:1004FB00080AD295E4F508F509C203220509E509B6
:10050B00701D050822C295A2009280308109AB2193
:10051B00AA22A92312065E050BE50B7002050A221F
:10065E0012028CFFE50B450A70047480801FC3E5FF
:10066E000B9408E50A648094805015E50B14FE7413
:10067E0001A806088002C333D8FC2FFFEF1202D266
:01068E002249
:1006280012028CFFE50B450A7003530701C3E50B63
:100638009408E50A648094805015E50B450A600F1C
:10064800AE0B7401A806088002C333D8FC5207EF2A
:050658006002D322C383
:01065D00227A
:05000E00A20192902206
:03079700D2032268
:0A03BE00420128000042012600025F
:1006EC00200318900128E0FEA3E0FFEE700DEF143C
:0C06FC00600604700602052B1207902215
:10052B00900126E0FEA3E0FFEE703AEF24FE601C84
:10053B000470327B017A00798A120016500E9001FA
:10054B0029E004F07006900128E004F07B017A00AA
:10055B007906120016500E900129E004F0700690F7
:06056B000128E004F0226B
:0407900012045522D8
:03000B000205B13A
:1005B100C0E0C0F0C083C082C0D075D000C000C010
:1005C10001C002C003C004C005C006C00730030358
:1005D1001206D0D007D006D005D004D003D002D067
:0E05E10001D000D0D0D082D083D0F0D0E03254
:0300130002078B56
:05078B00D202B282322F
:030000000203C92F
:0C03C900787FE4F6D8FD75812E02041048
:10019600E709F608DFFA8046E709F208DFFA803E4B
:1001A60088828C83E709F0A3DFFA8032E309F60838
:1001B600DFFA8078E309F208DFFA807088828C83A0
:1001C600E309F0A3DFFA806489828A83E0A3F60854
:1001D600DFFA805889828A83E0A3F208DFFA804C2E
:1001E60080D280FA80C680D4806980F28033801005
:1001F60080A680EA809A80A880DA80E280CA80336E
:1002060089828A83ECFAE493A3C8C582C8CCC583E5
:10021600CCF0A3C8C582C8CCC583CCDFE9DEE780B5
:100226000D89828A83E493A3F608DFF9ECFAA9F034
:10023600EDFB2289828A83ECFAE0A3C8C582C8CC8A
:10024600C583CCF0A3C8C582C8CCC583CCDFEADEA3
:10025600E880DB89828A83E493A3F208DFF980CC05
:1002660088F0EF60010E4E60C388F0ED2402B404FE
:100276000050B9F582EB2402B4040050AF232345A5
:0602860082239001E673E3
:10028C00BB010689828A83E0225002E722BBFE0270
:09029C00E32289828A83E49322A3
:1002A500BB010CE58229F582E5833AF583E022500E
:1002B50006E92582F8E622BBFE06E92582F8E22258
:0D02C500E58229F582E5833AF583E4932272
:1002D200BB010689828A83F0225002F722BBFE010B
:0202E200F32205
:1002E400E8600FEFC333FFEE33FEED33FDEC33FC78
:0302F400D8F1221C
:1003D500020750E493A3F8E493A34003F68001F2E7
:1003E50008DFF48029E493A3F85407240CC8C33329
:1003F500C4540F4420C8834004F456800146F6DFF8
:10040500E4800B01020408102040809002F7E47E8E
:10041500019360BCA3FF543F30E509541FFEE493EC
:10042500A360010ECF54C025E060A840B8E493A3B3
:10043500FAE493A3F8E493A3C8C582C8CAC583CADE
:10044500F0A3C8C582C8CAC583CADFE9DEE780BE96
:0103C8000034
:00000001FF
