:0F07900012079F7F647E001207DE1206F480FBC3
:10001600C18360840266200F0000000021000000FA
:100026000000230300000000256E000000002605E6
:1000360000000000221F000000003C00000000003D
:100046003D00000000003101000000003201000008
:1000560000003301000000003401000000003501FB
:10006600000000003601000000003058585858586B
:100076002A58585858582B56565656562C71000022
:1000860000002D77000000002E65000000002F699B
:1000960000000000E2FF00000000608402EA200E7B
:1000A600000000000000000000000000000000004A
:1000B600000000000000000000000000000000003A
:1000C600000000000000000000000000000000002A
:1000D600000000000000000000000000000000001A
:1000E600000000000000000000000000000000000A
:1000F60000000000000000000000000000000000FA
:1001060000000000000000000000000000000000E9
:1001160000000000000000000000000000000000D9
:100126000000608401D6000000000000010000000D
:1001360000000300000000000500000000000600AB
:10014600000000000200000000001C00000000008B
:100156001D00000000001100000000001200000059
:10016600000013000000000014000000000015004D
:100176000000000016000000000010000000000053
:100186000A00000000000B00000000000C00000048
:1001960000000D00000000000E00000000000F002F
:1001A60000000000E2000000000046025A070000BE
:1001B6000000004601CAA0000000000046038C6152
:1001C600000000000046036EE20000000000460347
:1001D6007AE100000000004601D027700000000010
:1001E6004603801100000000004602601700000070
:1001F6000000460386A800000000004603740000C5
:0A02060000000000C104021C00000B
:10023B00E51C600302038FE51DB41B0040030203A2
:10024B008F900253F82828730202A40202A902021B
:10025B00A90202AC0202B50202BE0202C70202D020
:10026B000202D90202E20202EB0202F30202FB02D9
:10027B00030302030B02031302031B0203230203F8
:10028B002B02033502033F02034902035302035DB2
:10029B000202A902037E020389C29102038F0203A9
:1002AB00757B017A02796C02036C7B017A0279729D
:1002BB0002036C7B017A02797802036C7B017A0270
:1002CB00797E02036C7B017A02798402036C7B01D9
:1002DB007A02798A02036C7B017A02799002036CB1
:1002EB007B017A0279BA803E7B017A027996807122
:1002FB007B017A02799C80697B017A0279A2806109
:10030B007B017A0279A880597B017A0279AE805100
:10031B007B017A0279B480187B017A0279C080065E
:10032B007B017A0279C67D0680397B017A0279CC12
:10033B007D02802F7B017A0279D27D0280257B01A1
:10034B007A0279D87D02801B7B017A0279DE7D02ED
:10035B0080117B013003067A02796680047A027978
:10036B00EA7D027C00120633801A7FF47E011207AD
:10037B00F18011300304D291800AC2918006751C62
:08038B0003751DE712071022A3
:10054C00E51C7049E51D14601414601314600E143E
:10055C00602A14603224057034C291803080147B80
:10056C00013003067A02796680047A0279EA12066F
:10057C002F801A7FF47E011207F18011300304D210
:10058C0091800AC2918006751C03751DE712071035
:01059C00223C
:1004F400E51C7050E51DB408005049900506F82825
:10050400287302051E02054802052202052A020577
:100514002E02051E020537020542C29180267B0188
:100524007A0179CA8013D291801A7F967E001207CD
:10053400F180117B017A0179D012062F8006751C97
:0805440003751DE712071022E8
:10059D00E51C7044E51D14601524FE601A14601FDF
:1005AD0014602414602C2406702ED291802A7F961C
:1005BD007E001207F180217B017A03798C800E7BFE
:1005CD00017A03796E80067B017A0179D012062FAC
:0C05DD008006751C03751DE71207102234
:04062F007D027C00CC
:0A0633008B258A2689278C288D2943
:10063D00E4FFFED3EF9529E5286480F8EE648098F9
:10064D00501BAB25AA26A9278F828E83120438FD55
:10065D0074142FF8A6050FBF00010E80D685281A39
:06066D0085291B020003B9
:1006D300E4FFFE740E2FF8E6FD74742FF5827403A5
:1006E3003EF583EDF00FBF00010EEF64064E70E39D
:0106F30022E4
:10071000E51DB4E70CE51CB40307E4F51CF51DD397
:0B07200022051DE51D7002051CC32210
:0307F1000207DE1E
:10067300E4F5B1F5B2F5B3F5B4F5ACF5AD43B310AC
:1006830053B4EF43B38053B47F53B1FE43B201433A
:10069300B10253B2FD43E90153E9FB43EA0153EBD2
:0606A300FED2AAC2912262
:0A0210004201C200004201BA0000E2
:0E079F0012067312077FC2051207ECD2AF22BA
:1006F4002001189001C2E0FEA3E0FFEE700DEF149C
:0C07040060060470060207571207C922A5
:1007570012023B500E9001C3E004F070069001C2F4
:04076700E004F02298
:0C07C90012059D900375E06002B29622BC
:03000B000205E902
:1005E900C0E0C0F0C083C082C0D075D000C000C0D8
:1005F90001C002C003C004C005C006C00730010B1A
:1006090030020512076B800312072BD007D006D0E2
:1006190005D004D003D002D001D000D0D0D082D0F0
:0606290083D0F0D0E032A6
:0300130002000EDA
:05000E00D204B28232B1
:10021A00021A0006020C0000020A0000C101C10015
:06022A0002080000C10201
:10072B007414250BF9E4FAFB1206A9740E250BF9C8
:06073B00E4FAFB02049049
:100490008F218B228A238924E50D450C6002B290BE
:1004A000209050E50C7015E50D24F8700FD280C235
:1004B00090E4F50CF50D1207410207D5C295E52130
:1004C0006004D2808002C280308113AB22AA23A9AB
:1004D000241206A9EF2524F524E43523F523E50DA0
:1004E0006407450C7005F50C750D07050DE50D70DD
:0404F00002050C22D3
:10074100E51B24FFFFE51A34FFFEEFB50B07EEB5FD
:060751000A031207E72273
:0507E700D295C20122C1
:0907D500050BE50B7002050A2278
:1006A90012041FFFC3E50D9407E50C648094804094
:1006B900055307018013C37407950DFE7401A8063D
:0906C900088002C333D8FC52077B
:0106D2002205
:10076B00E50945086009E50915097007150822C256
:04077B0002C2012293
:0907DE008E088F09D202D201221B
:0507EC00A2059290221D
:08000300E4F50AF50BD201221D
:0A023000420558000742055A000875
:0E07AD00120465FF900558E5F0F0A3EFF0226E
:0E07BB00120465FF90055AE5F0F0A3EFF0225E
:0107F40022E2
:0107F50022E1
:0107F60022E0
:0107F70022DF
:10077F005389F0438902758CFF758AF9D2A9D28CFF
:01078F002247
:0300000002039365
:0C039300787FE4F6D8FD7581290203DABA
:10041F00BB010689828A83E0225002E722BBFE02DB
:09042F00E32289828A83E493220E
:10043800BB010CE58229F582E5833AF583E0225079
:1004480006E92582F8E622BBFE06E92582F8E222C3
:0D045800E58229F582E5833AF583E49322DD
:10046500BB010A89828A83E0F5F0A3E02250068762
:10047500F009E71922BBFE07E3F5F009E319228924
:0B048500828A83E493F5F07401932257
:10039F00020790E493A3F8E493A34003F68001F2DD
:1003AF0008DFF48029E493A3F85407240CC8C3335F
:1003BF00C4540F4420C8834004F456800146F6DF2E
:1003CF00E4800B0102040810204080900016E47EA8
:1003DF00019360BCA3FF543F30E509541FFEE49323
:1003EF00A360010ECF54C025E060A840B8E493A3EA
:1003FF00FAE493A3F8E493A3C8C582C8CAC583CA15
:10040F00F0A3C8C582C8CAC583CADFE9DEE780BECC
:01023A0000C3
:00000001FF
