:0F07C0001207CF7F647E0012080E12072480FB01
:10001600C18360840266200F0000000021000000FA
:100026000000230300000000256E000000002605E6
:1000360000000000221F000000003C00000000003D
:100046003D00000000003101000000003201000008
:1000560000003301000000003401000000003501FB
:10006600000000003601000000003058585858586B
:100076002A58585858582B56565656562C71000022
:1000860000002D77000000002E65000000002F699B
:1000960000000000E2FF00000000608402EA200E7B
:1000A600000000000000000000000000000000004A
:1000B600000000000000000000000000000000003A
:1000C600000000000000000000000000000000002A
:1000D600000000000000000000000000000000001A
:1000E600000000000000000000000000000000000A
:1000F60000000000000000000000000000000000FA
:1001060000000000000000000000000000000000E9
:1001160000000000000000000000000000000000D9
:100126000000608401D6000000000000010000000D
:1001360000000300000000000500000000000600AB
:10014600000000000200000000001C00000000008B
:100156001D00000000001100000000001200000059
:10016600000013000000000014000000000015004D
:100176000000000016000000000010000000000053
:100186000A00000000000B00000000000C00000048
:1001960000000D00000000000E00000000000F002F
:1001A60000000000E2000000000046025A070000BE
:1001B6000000004601CAA0000000000046038C6152
:1001C600000000000046036EE20000000000460347
:1001D6007AE100000000004601D027700000000010
:1001E6004603801100000000004602601700000070
:1001F6000000460386A800000000004603740000C5
:0A02060000000000C104022B0000FC
:10023B00E52B6003020396E52CB41B00400302037D
:10024B0096900253F82828730202A40202A9020214
:10025B00B00202B70202C00202C90202D20202DBE2
:10026B000202E40202ED0202F60202FE02030602A1
:10027B00030E02031602031E02032602032E0203C1
:10028B003602034002034A02035402035E02036870
:10029B000202B0020385020390C2910203967F967D
:1002AB007E000203807FF47E010203807B017A02D1
:1002BB00796C0203777B017A0279720203777B01F7
:1002CB007A0279780203777B017A02797E020377CF
:1002DB007B017A0279840203777B017A02798A02A5
:1002EB0003777B017A0279900203777B017A02799B
:1002FB00BA803E7B017A02799680717B017A027912
:10030B009C80697B017A0279A280617B017A0279F8
:10031B00A880597B017A0279AE80517B017A0279F0
:10032B00B480187B017A0279C080067B017A02794E
:10033B00C67D0680397B017A0279CC7D02802F7BCA
:10034B00017A0279D27D0280257B017A0279D87DF0
:10035B0002801B7B017A0279DE7D0280117B0130EA
:10036B0003067A02796680047A0279EA7D027C00C0
:10037B001205E7801612082D8011300304D29180EC
:0F038B000AC2918006752B03752CE712074022DA
:10054600E52B7049E52C14601414601314600E1426
:10055600602A14603224057034C291803080147B86
:10056600013003067A02796680047A0279EA120576
:10057600E3801A7FF47E0112082D8011300304D225
:1005860091800AC2918006752B03752CE7120740ED
:010596002242
:10049700E52B7050E52CB4080050499004A9F828C2
:1004A70028730204C10204EB0204C50204CD02044E
:1004B700D10204C10204DA0204E5C29180267B015D
:1004C7007A0179CA8013D291801A7F967E0012082A
:1004D7002D80117B017A0179D01205E38006752BF7
:0804E70003752CE71207402207
:10059700E52B7044E52C14601524FE601A14601FC7
:1005A70014602414602C2406702ED291802A7F9622
:1005B7007E0012082D80217B017A03798C800E7BC7
:1005C700017A03796E80067B017A0179D01205E3FF
:0C05D7008006752B03752CE712074022EC
:0405E3007D027C0019
:0A05E7008B258A2689278C288D2990
:1005F100E4F52AFFFED3EF9529E5286480F8EE643F
:100601008098501BAB25AA26A9278F828E831204BE
:100611003FFD74142FF8A6050FBF00010E80D6858B
:08062100281A85291B020003C1
:10070300E4FFFE740E2FF8E6FD74742FF582740374
:100713003EF583EDF00FBF00010EEF64064E70E36C
:0107230022B3
:10074000E52CB4E70CE52BB40307E4F52BF52CD32B
:0B07500022052CE52C7002052BC322B3
:03082D0002080EB0
:10066F00E4F5B1F5B2F5B3F5B4F5ACF5AD43B310B0
:10067F0053B4EF43B38053B47F53B1FE43B201433E
:10068F00B10253B2FD43E90153E9FB43EA0153EBD6
:06069F00FED2AAC2912266
:0A0210004201C200004201BA0000E2
:0E07CF0012066F1207AFC205120828D2AF2221
:100724002001189001C2E0FEA3E0FFEE700DEF146B
:0C07340060060470060207871207F92215
:1007870012023B500E9001C3E004F070069001C2C4
:04079700E004F02268
:0C07F900120597900375E06002B2962292
:03000B00020629C1
:10062900C0E0C0F0C083C082C0D075D000C000C097
:1006390001C002C003C004C005C006C00730010BD9
:1006490030020512079B800312075BD007D006D042
:1006590005D004D003D002D001D000D0D0D082D0B0
:0606690083D0F0D0E03266
:0300130002000EDA
:05000E00D204B28232B1
:10021A00021A0006020C0000020A0000C101C10015
:06022A0002080000C10201
:05081E008E1A8F1B2261
:070817007B007A00790E223C
:0606A5008B1C8A1D891E5A
:1006AB00E4FFFED3EF951BE51A6480F8EE648098A7
:1006BB00501BAB1CAA1DA91E8F828E8312043FFDFB
:0D06CB0074142FF8A6050FBF00010E80D695
:0106D80022FF
:10075B007414250BF9E4FAFB1206D9740E250BF968
:06076B00E4FAFB0204EFBA
:1004EF008F218B228A238924E50D450C6002B2905F
:1004FF00209043E50C7015E50D24F8700FD280C2E3
:10050F0090E4F50CF50D120771020805C295E5216F
:10051F006004D2808002C280308113AB22AA23A94B
:10052F00241206D9EF2524F524E43523F523050DF0
:07053F00E50D7002050C221E
:10077100E51B24FFFFE51A34FFFEEFB50B07EEB5CD
:060781000A031208232206
:05082300D295C2012284
:09080500050BE50B7002050A2247
:1006D900120426FFC3E50D9407E50C64809480405D
:1006E900055307018013C37407950DFE7401A8060D
:0906F900088002C333D8FC52074B
:0107020022D4
:10079B00E50945086009E50915097007150822C226
:0407AB0002C2012263
:09080E008E088F09D202D20122EA
:05082800A205929022E0
:08000300E4F50AF50BD201221D
:0A023000420558000742055A000875
:0E07DD0012046CFF900558E5F0F0A3EFF02237
:0E07EB0012046CFF90055AE5F0F0A3EFF02227
:0108300022A5
:0108310022A4
:0108320022A3
:0108330022A2
:0108340022A1
:1007AF005389F0438902758CFF758AF9D2A9D28CCF
:0107BF002217
:0300000002039A5E
:0C039A00787FE4F6D8FD75812C0203E1A9
:10042600BB010689828A83E0225002E722BBFE02D4
:09043600E32289828A83E4932207
:10043F00BB010CE58229F582E5833AF583E0225072
:10044F0006E92582F8E622BBFE06E92582F8E222BC
:0D045F00E58229F582E5833AF583E49322D6
:10046C00BB010A89828A83E0F5F0A3E0225006875B
:10047C00F009E71922BBFE07E3F5F009E31922891D
:0B048C00828A83E493F5F07401932250
:1003A6000207C0E493A3F8E493A34003F68001F2A6
:1003B60008DFF48029E493A3F85407240CC8C33358
:1003C600C4540F4420C8834004F456800146F6DF27
:1003D600E4800B0102040810204080900016E47EA1
:1003E600019360BCA3FF543F30E509541FFEE4931C
:1003F600A360010ECF54C025E060A840B8E493A3E3
:10040600FAE493A3F8E493A3C8C582C8CAC583CA0D
:10041600F0A3C8C582C8CAC583CADFE9DEE780BEC5
:01023A0000C3
:00000001FF
