:0505EF000204060800F3
:10026A0078407C007D007BFF7A0579EF7E007F0570
:10027A001200DEE4F5B1F5B2F5B3F5B4F5ACF5ADBF
:10028A0053B1FE43B201D296D282D2921205CBC2A8
:10029A00011205F4120587C3E53A9402E539648030
:1002AA00948050F3053AE53A7002053912058780C1
:0102BA00E65D
:03000B0002047676
:10047600C0E0C0F0C083C082C0D075D000C000C04C
:1004860001C002C003C004C005C006C00730020395
:100496001205AFD007D006D005D004D003D002D0C5
:0E04A60001D000D0D0D082D083D0F0D0E03290
:08000300C28520A0FD0204B437
:1004B400C2857F007E007D007C00E4FB30A00DEF50
:1004C4002401FFE43EFEE43DFDE43CFCD2857801DA
:1004D40012016DC2850BBB18E3E4FBD28500C28513
:0804E4000BBB01F7ED6480FD84
:0104EC0022ED
:100523000633010203040500062109121314050012
:10053300062D01020304050006270102030405003A
:040543000239000079
:0305F900C291228A
:10058700C291E5397009E53A600814600D8000C230
:1005970002227B007A00793380067B007A0079217A
:0805A7007D047C0012043622E1
:0305FC00C2912287
:0A0436008B458A4689478C488D49A2
:10044000E4FFFED3EF9549E5486480F8EE648098B8
:10045000501BAB45AA46A9478F828E8312011DFD12
:1004600074122FF8A6050FBF00010E80D68548181C
:05047000854919D202CC
:010475002264
:0705E8007B007A007900227C
:0105FF0022D9
:0106000022D7
:0106010022D6
:0106020022D5
:0A05DE00A292B39292E4FE33FF22D2
:0E05470002180006020A000002080000C102AD
:1005CB005389F0438901758CFF758AFBD2A9D2AF91
:0305DB00D28C229D
:1005AF0074122509F9E4FAFB1204ED9200740C257C
:0C05BF0009F9E4F53BF53C893D02020C13
:10020C00753E00753F02E50B450A6002B2902090E6
:10021C004CE50A702EE50B24F87028D280D281C2EE
:10022C0090E4F50AF50BE509B5190FE508B5180AC0
:10023C00D295E4F508F509C202220509E509701DFD
:10024C00050822C295A2009280308109AB3BAA3CE2
:0D025C00A93D120556050BE50B7002050AC1
:010269002272
:10055600120104FFE50B450A70047480801FC3E591
:100566000B9408E50A648094805015E50B14FE741C
:1005760001A806088002C333D8FC2FFFEF12014AF8
:010586002252
:1004ED00120104FFE50B450A7003530701C3E50B29
:1004FD009408E50A648094805015E50B450A600F59
:10050D00AE0B7401A806088002C333D8FC5207EF66
:05051D006002D322C3BF
:0105220022B6
:0505F400A2019290221B
:100355008F1D8E1C8D1B8C1A538EF7438901D28CF1
:10036500E4FFFEFDFCAB1DAA1CA91BA81AC31201C4
:100375005C6025758A7E758CFF308DFDC28DE51D0F
:1003850024FFF51DE51C34FFF51CE51B34FFF51BAB
:0B039500E51A34FFF51A80C8C28C2264
:1003A0008F4D8E4C8D4B8C4A538EF7438901D28CE6
:1003B000E4FFFEFDFCAB4DAA4CA94BA84AC31201B9
:1003C0005C6025758ACA758CFA308DFDC28DE54D4D
:1003D00024FFF54DE54C34FFF54CE54B34FFF54B70
:0B03E000E54A34FFF54A80C8C28C22B9
:1003EB008F518E508D4F8C4E538EEF438910D28E82
:1003FB00E4FFFEFDFCAB51AA50A94FA84EC312015E
:10040B005C6025758BEA758DCB308FFDC28FE55106
:10041B0024FFF551E55034FFF550E54F34FFF54F10
:0B042B00E54E34FFF54E80C8C28E2263
:1002BB008F558E548D538C5275C40743C408E4FF7D
:1002CB00FEFDFCAB55AA54A953A852C312015C60A6
:1002DB002875C52C75C6CFE5C430E4FB53C4EFE5D8
:1002EB005524FFF555E55434FFF554E55334FFF52C
:0D02FB0053E55234FFF55280C553C4F7227D
:100308008F598E588D578C5675C40743C408E4FF1F
:10031800FEFDFCAB59AA58A957A856C312015C6048
:100328002875C5D875C6FFE5C430E4FB53C4EFE5AE
:100338005924FFF559E55834FFF558E55734FFF5CA
:0D03480057E55634FFF55680C553C4F72223
:030000000201807A
:0C018000787FE4F6D8FD7581590201C7B4
:10000E00E709F608DFFA8046E709F208DFFA803ED4
:10001E0088828C83E709F0A3DFFA8032E309F608C1
:10002E00DFFA8078E309F208DFFA807088828C8329
:10003E00E309F0A3DFFA806489828A83E0A3F608DD
:10004E00DFFA805889828A83E0A3F208DFFA804CB7
:10005E0080D280FA80C680D4806980F2803380108E
:10006E0080A680EA809A80A880DA80E280CA8033F7
:10007E0089828A83ECFAE493A3C8C582C8CCC5836F
:10008E00CCF0A3C8C582C8CCC583CCDFE9DEE7803F
:10009E000D89828A83E493A3F608DFF9ECFAA9F0BE
:1000AE00EDFB2289828A83ECFAE0A3C8C582C8CC14
:1000BE00C583CCF0A3C8C582C8CCC583CCDFEADE2D
:1000CE00E880DB89828A83E493A3F208DFF980CC8F
:1000DE0088F0EF60010E4E60C388F0ED2402B40488
:1000EE000050B9F582EB2402B4040050AF2323452F
:0600FE00822390005E73F6
:10010400BB010689828A83E0225002E722BBFE02F9
:09011400E32289828A83E493222C
:10011D00BB010CE58229F582E5833AF583E0225097
:10012D0006E92582F8E622BBFE06E92582F8E222E1
:0D013D00E58229F582E5833AF583E49322FB
:10014A00BB010689828A83F0225002F722BBFE0194
:02015A00F3228E
:10015C00EB9FF5F0EA9E42F0E99D42F0E89C45F0F9
:01016C002270
:10016D00E8600FEFC333FFEE33FEED33FDEC33FCF0
:03017D00D8F12294
:10018C0002026AE493A3F8E493A34003F68001F21D
:10019C0008DFF48029E493A3F85407240CC8C33374
:1001AC00C4540F4420C8834004F456800146F6DF43
:1001BC00E4800B0102040810204080900523E47EAB
:1001CC00019360BCA3FF543F30E509541FFEE49338
:1001DC00A360010ECF54C025E060A840B8E493A3FF
:1001EC00FAE493A3F8E493A3C8C582C8CAC583CA2A
:1001FC00F0A3C8C582C8CAC583CADFE9DEE780BEE2
:0105550000A5
:00000001FF
