:10077100120699120783C20312000ED2AF12072686
:0207810080FBFB
:08000300C28520A0FD0205F9F1
:1005F900C2857F007E007D007C00E4FB30A00DEF0A
:100609002401FFE43EFEE43DFDE43CFCD285780193
:10061900120164C2850BBB18E3E4FBD28500C285D5
:080629000BBB01F7ED6480FD3D
:0106310022A6
:0607C90007000000000023
:1002D10060840006200F00000000213F00000000A4
:1002E100230300000000254C00000000260F000041
:1002F10000002202000000003C03000000003D0657
:100301000000000031010000000032010000000087
:10031100330100000000340100000000350100003D
:1003210000003601000000003058585858582A582B
:10033100585858582B56565656562C7100000000E6
:100341002D77000000002E65000000002F690000DD
:100351000000E2FF00000000C104021C0000460191
:10036100140000000000004601326100000000009E
:1003710046010EE2000000000046011AE100000003
:100381000000460000277000000000460120110017
:100391000000000046012617000000000046012C65
:0603A100A80000000000AE
:100177008B248A258926E51C60030202CDE51DB480
:100187001B0040030202CD900195F8282873020155
:10019700E60202CD0202CD0201EB0201F40201FCEC
:1001A70002020402020C02021402021C02022402CE
:1001B700022C02023402023C02024402024C0202F6
:1001C7005402025C0202640202730202820202917A
:1001D7000202A00202AF0202BE0202C30202C7C2AB
:1001E700910202CDAB24E5262406020279AB24E571
:1001F70026240C807DAB24E52624128075AB24E5EC
:10020700262418806DAB24E526241E8065AB24E5E3
:10021700262424805DAB24E526242A8055AB24E5DB
:10022700262454803EAB24E52624308045AB24E5C4
:10023700262436803DAB24E526243C8035AB24E5D7
:10024700262442802DAB24E52624488025AB24E5CF
:1002570026244E801DAB24E526245A8006AB24E5D0
:10026700262460F9E43525FA7D068044AB24E5268B
:100277002466F9E43525FA7D028035AB24E526248A
:100287006CF9E43525FA7D028026AB24E526247235
:10029700F9E43525FA7D028017AB24E5262478F9A1
:1002A700E43525FA7D028008AB24AA25A9267D021C
:1002B7007C001205B9800F1207C2800AD29180060E
:0A02C700751C03751DE712074222A3
:0E079400E51D7006E51C7002C291120742229C
:10045200E51C7073E51D14B40900506B90046C75B3
:10046200F003A4C58325F0C583730204870204C97F
:100472000204C902048B02049002049F0204A70230
:1004820004B40204C3D291803E1206EA80391206F5
:10049200C9900114E0540E24A890012CF07B017A3B
:1004A20001793280131206C9900115E090012DF0F6
:1004B20080157B017A01792C7D027C001205B980BE
:0B04C20006751C03751DE7120742229F
:0A05B9008B2A8A2B892C8C2D8D2EA5
:1005C300E4FFFED3EF952EE52D6480F8EE6480986A
:1005D300501BAB2AAA2BA92C8F828E83120125FDD7
:1005E30074142FF8A6050FBF00010E80D6852D1AAF
:0605F300852E1B0207DD4E
:0D07A2007B017A0079007D027C000205B920
:1006EA0078247C007D007BFF7A0779C97E007F062B
:1006FA001200E67B007A0079247D017C000205B9AC
:1006C900E4FFFE740E2FF8E6FD74142FF582740111
:1006D9003EF583EDF00FBF00010EEF64064E70E3A7
:0106E90022EE
:10074200E51DB4E70CE51CB40307E4F51CF51DD365
:0B07520022051DE51D7002051CC322DE
:0707C2007F0A7E000207B967
:0107E00022F6
:0307DA00A29422C4
:0A07AF00A292B39292E4FE33FF22FF
:10069900E4F5B1F5B2F5B3F5B4F5ACF5AD43B31086
:1006A90053B4EF43B38053B47F53B1FE43B2014314
:1006B900E90153E9FB43EA0153EBFED2AAC29122B5
:1003A700021A0006020C0000020A0000C10002083F
:0403B7000000C10180
:100783005389F0438901758CFF758AFBD2A9D28CFA
:010793002243
:10070A007414250BF9E4FAFB1206329202740E25D0
:0C071A000BF9E4F521F52289230204CD3F
:1004CD00E50D450C6002B290209054E50C7036E5B8
:1004DD000D24F87030D280D281C290E4F50CF50D68
:1004ED00E51B24FFFFE51A34FFFEEFB50B0EEEB54D
:1004FD000A0AD295E4F50AF50BC20022050BE50BAD
:10050D00701D050A22C295A2029280308109AB218D
:10051D00AA22A923120668050DE50D7002050C220D
:1006680012010CFFE50D450C70047480801FC3E572
:100678000D9408E50C648094805015E50D14FE7403
:1006880001A806088002C333D8FC2FFFEF120152DD
:01069800223F
:1006320012010CFFE50D450C7003530701C3E50DD4
:100642009408E50C648094805015E50D450C600F0C
:10065200AE0D7401A806088002C333D8FC5207EF1E
:050662006002D322C379
:010667002270
:10075D00E50945086009E50915097007150822C264
:04076D0001C20022A3
:0907B9008E088F09D201D2002242
:05000E00A20392902204
:0307DD00D2002225
:0A03BB0042013A000042013800023E
:1007260020001890013AE0FEA3E0FFEE700DEF14F2
:0C073600600604700602052D1207CF2299
:10052D00900138E0FEA3E0FFEE703AEF24FE601C70
:10053D000470327B017A00798A120177500E900196
:10054D003BE004F0700690013AE004F07B017A0084
:10055D007906120177500E90013BE004F070069081
:06056D00013AE004F02257
:0607CF00120452B2962252
:03000B0002057378
:10057300C0E0C0F0C083C082C0D075D000C000C04E
:1005830001C002C003C004C005C006C00730000B91
:1005930030010512075D800312070AD007D006D089
:1005A30005D004D003D002D001D000D0D0D082D067
:0605B30083D0F0D0E0321D
:030013000207D50C
:0507D500D204B28232E3
:030000000203C632
:0C03C600787FE4F6D8FD75812E02040D4E
:10001600E709F608DFFA8046E709F208DFFA803ECC
:1000260088828C83E709F0A3DFFA8032E309F608B9
:10003600DFFA8078E309F208DFFA807088828C8321
:10004600E309F0A3DFFA806489828A83E0A3F608D5
:10005600DFFA805889828A83E0A3F208DFFA804CAF
:1000660080D280FA80C680D4806980F28033801086
:1000760080A680EA809A80A880DA80E280CA8033EF
:1000860089828A83ECFAE493A3C8C582C8CCC58367
:10009600CCF0A3C8C582C8CCC583CCDFE9DEE78037
:1000A6000D89828A83E493A3F608DFF9ECFAA9F0B6
:1000B600EDFB2289828A83ECFAE0A3C8C582C8CC0C
:1000C600C583CCF0A3C8C582C8CCC583CCDFEADE25
:1000D600E880DB89828A83E493A3F208DFF980CC87
:1000E60088F0EF60010E4E60C388F0ED2402B40480
:1000F6000050B9F582EB2402B4040050AF23234527
:06010600822390006673E5
:10010C00BB010689828A83E0225002E722BBFE02F1
:09011C00E32289828A83E4932224
:10012500BB010CE58229F582E5833AF583E022508F
:1001350006E92582F8E622BBFE06E92582F8E222D9
:0D014500E58229F582E5833AF583E49322F3
:10015200BB010689828A83F0225002F722BBFE018C
:02016200F32286
:10016400E8600FEFC333FFEE33FEED33FDEC33FCF9
:03017400D8F1229D
:1003D200020771E493A3F8E493A34003F68001F2C9
:1003E20008DFF48029E493A3F85407240CC8C3332C
:1003F200C4540F4420C8834004F456800146F6DFFB
:10040200E4800B01020408102040809002D1E47EB7
:10041200019360BCA3FF543F30E509541FFEE493EF
:10042200A360010ECF54C025E060A840B8E493A3B6
:10043200FAE493A3F8E493A3C8C582C8CAC583CAE1
:10044200F0A3C8C582C8CAC583CADFE9DEE780BE99
:0103C5000037
:00000001FF
