:1008B7001207B11208C9C204120928D2AF120828B8
:0208C70080FBB4
:08000300C28520A0FD02077870
:10077800C2857F007E007D007C00E4FB30A00DEF89
:100788002401FFE43EFEE43DFDE43CFCD285780113
:100798001204C1C2850BBB18E3E4FBD28500C285F5
:0807A8000BBB01F7ED6480FDBD
:0107B0002226
:06092200070000000000C8
:1000160060840090200F00000000213F00000000D7
:10002600230300000000256E0000000026050000E6
:100036000000221F000000003C00000000003D0000
:100046000000000031010000000032010000000045
:1000560033010000000034010000000035010000FB
:1000660000003601000000003058585858582A58E9
:10007600585858582B56565656562C7100000000A4
:100086002D77000000002E65000000002F6900009B
:100096000000E2FF000000006084000C0000000089
:1000A6000000010000000000030000000000050041
:1000B6000000000006000000000002000000000032
:1000C6001C00000000001D000000000011000000E0
:1000D60000001200000000001300000000001400E1
:1000E60000000000150000000000160000000000DF
:1000F6001000000000000A00000000000B000000D5
:1001060000000C00000000000D00000000000E00C2
:10011600000000000F0000000000E20000000000E8
:1001260060840114200E00000000000000000000A2
:1001360000000000000000000000000000000000B9
:1001460000000000000000000000000000000000A9
:100156000000000000000000000000000000000099
:100166000000000000000000000000000000000089
:100176000000000000000000000000000000000079
:100186000000000000000000000000000000000069
:100196000000000000000000000000000000000059
:1001A6000000000000000000C103021E0000021C47
:1001B600000146019E000000000000460000A0006D
:1001C600000000004601BC61FFFF000000460198E8
:1001D600E200000000004601A4E100000000004625
:1001E60000062770000000004601AA11000000006A
:1001F600004601B01700000000004601B6A8000046
:03020600000000F5
:100228008B258A268927E51E6003020381E51FB412
:100238001B004003020381900246F828287302023B
:100248009702038102029C02029F0202A80202B0E6
:100258000202B80202C00202C80202D00202D80298
:1002680002E00202E80202F00202F80203000203BE
:10027800080203100203180203270203360203458B
:1002880002035402036302029C02037702037BC247
:1002980091020381020372AB25E527240602032D90
:1002A800AB25E527240C807DAB25E5272412807536
:1002B800AB25E5272418806DAB25E527241E80652E
:1002C800AB25E5272424805DAB25E527242A805526
:1002D800AB25E5272454803EAB25E527243080450F
:1002E800AB25E5272436803DAB25E527243C803522
:1002F800AB25E5272442802DAB25E527244880251A
:10030800AB25E527244E801DAB25E527245A80061A
:10031800AB25E5272460F9E43526FA7D068044AB51
:1003280025E5272466F9E43526FA7D028035AB25D4
:10033800E527246CF9E43526FA7D028026AB25E50D
:10034800272472F9E43526FA7D028017AB25E527C4
:100358002478F9E43526FA7D028008AB25AA26A977
:10036800277D027C00120738800F12091B800AD2F1
:0D037800918006751E03751FE712084422D0
:1006EF008B338A348935E51E7037E51F1460141477
:1006FF00601314600E14601D14602024057022C254
:10070F0091801E800BAB33AA34A9351207348011A8
:10071F0012091B800CA20292918006751E03751F91
:05072F00E7120844225E
:10056000E51E705AE51FB408005053900572F82834
:10057000287302058A02058E0205960205A102056E
:10058000A90205AD02058A0205B8C291803090002B
:1005900001E51DF080287B017A0079001207348084
:1005A0001D051DE51D7002051CD291801112091B4D
:1005B00012091B12091B8006751E03751FE712081E
:0205C0004422D3
:10061900E51E7042E51F24FE601624FE6017146073
:100629001C14602124FD60282408702AD291802698
:1006390012091B80217B017A0179BC800E7B017A2A
:1006490001799880067B017A0079061207348006C1
:0A065900751E03751FE71208442206
:040734007D027C00C6
:0A0738008B288A29892A8C2B8D2C2E
:10074200E4FFFED3EF952CE52B6480F8EE648098ED
:10075200501BAB28AA29A92A8F828E83120494FDEA
:1007620074142FF8A6050FBF00010E80D6852B1A30
:06077200852C1B02091397
:0D08EA007B017A0079067D027C0002073850
:10080800782D7C007D007BFF7A0979227E007F06A7
:100818001204557B007A00792D7D017C000207388F
:1007E700E4FFFE740E2FF8E6FD749E2FF582740168
:1007F7003EF583EDF00FBF00010EEF64064E70E388
:0108070022CE
:10084400E51FB4E70CE51EB40307E4F51EF51FD35A
:0B08540022051FE51F7002051EC322D5
:07091B007F1E7E0002090AA5
:01093500229F
:03093200A294226A
:0A08F700A292B39292E4FE33FF22B6
:1007B100E4F5B1F5B2F5B3F5B4F5ACF5AD43B3106D
:1007C10053B4EF43B38053B47F53B1FE43B20143FB
:1007D100B10253B2FD43E90153E9FB43EA0153EB93
:0607E100FED2AAC2912223
:10020900021A0006020C0000020A0000C1000208DE
:040219000000C1011F
:1008C9005389F0438901758CFF758AFDD2A9D28CB1
:0108D90022FC
:100877007414250BF9E4FAFB12085F740E250BF9C3
:06088700E4FAFB0205C2C9
:1005C2008F218B228A238924E50D450C6002B2908B
:1005D200209043E50C7015E50D24F8700FD280C20F
:1005E20090E4F50CF50D12088D020901C295E52182
:1005F2006004D2808002C280308113AB22AA23A978
:100602002412085FEF2524F524E43523F523050D94
:07061200E50D7002050C224A
:10088D00E51B24FFFFE51A34FFFEEFB50B07EEB5B0
:06089D000A0312000E2206
:05000E00D295C20022A2
:09090100050BE50B7002050A224A
:10085F0012047BFFC37407950DFE7401A806088070
:07086F0002C333D8FC52075D
:01087600225F
:1008A300E50945086009E50915097007150822C21D
:0408B30001C200225C
:09090A008E088F09D201D20022EF
:05092800A204929022E0
:08091300E4F50AF50BD2002205
:0A021D004201C400004201C20002C9
:100828002000189001C4E0FEA3E0FFEE700DEF1465
:0C08380060060470060206631208DA2253
:100663009001C2E0FEA3E0FFEE703AEF24FE601CAF
:100673000470327B017A017914120228500E900122
:10068300C5E004F070069001C4E004F07B017A0039
:100693007990120228500E9001C5E004F070069084
:0606A30001C4E004F02296
:1008DA001206195002B28290019FE06002B296227B
:03000B000206A941
:1006A900C0E0C0F0C083C082C0D075D000C000C017
:1006B90001C002C003C004C005C006C00730000B5A
:1006C9003001051208A38003120877D007D006D09D
:1006D90005D004D003D002D001D000D0D0D082D030
:0606E90083D0F0D0E032E6
:0300130002092DB2
:05092D00D203B282328A
:030000000204D423
:0C04D400787FE4F6D8FD75813502051B29
:10038500E709F608DFFA8046E709F208DFFA803E5A
:1003950088828C83E709F0A3DFFA8032E309F60847
:1003A500DFFA8078E309F208DFFA807088828C83AF
:1003B500E309F0A3DFFA806489828A83E0A3F60863
:1003C500DFFA805889828A83E0A3F208DFFA804C3D
:1003D50080D280FA80C680D4806980F28033801014
:1003E50080A680EA809A80A880DA80E280CA80337D
:1003F50089828A83ECFAE493A3C8C582C8CCC583F5
:10040500CCF0A3C8C582C8CCC583CCDFE9DEE780C4
:100415000D89828A83E493A3F608DFF9ECFAA9F043
:10042500EDFB2289828A83ECFAE0A3C8C582C8CC99
:10043500C583CCF0A3C8C582C8CCC583CCDFEADEB2
:10044500E880DB89828A83E493A3F208DFF980CC14
:1004550088F0EF60010E4E60C388F0ED2402B4040D
:100465000050B9F582EB2402B4040050AF232345B4
:0604750082239003D57301
:10047B00BB010689828A83E0225002E722BBFE027F
:09048B00E32289828A83E49322B2
:10049400BB010CE58229F582E5833AF583E022501D
:1004A40006E92582F8E622BBFE06E92582F8E22267
:0D04B400E58229F582E5833AF583E4932281
:1004C100E8600FEFC333FFEE33FEED33FDEC33FC99
:0304D100D8F1223D
:1004E0000208B7E493A3F8E493A34003F68001F273
:1004F00008DFF48029E493A3F85407240CC8C3331D
:10050000C4540F4420C8834004F456800146F6DFEB
:10051000E4800B0102040810204080900016E47E65
:10052000019360BCA3FF543F30E509541FFEE493E0
:10053000A360010ECF54C025E060A840B8E493A3A7
:10054000FAE493A3F8E493A3C8C582C8CAC583CAD2
:10055000F0A3C8C582C8CAC583CADFE9DEE780BE8A
:0102270000D6
:00000001FF
