:0F0797001207A67F647E001207E51206FB80FBA7
:10001600C18360840266200F0000000021000000FA
:100026000000230300000000256E000000002605E6
:1000360000000000221F000000003C00000000003D
:100046003D00000000003101000000003201000008
:1000560000003301000000003401000000003501FB
:10006600000000003601000000003058585858586B
:100076002A58585858582B56565656562C71000022
:1000860000002D77000000002E65000000002F699B
:1000960000000000E2FF00000000608402EA200E7B
:1000A600000000000000000000000000000000004A
:1000B600000000000000000000000000000000003A
:1000C600000000000000000000000000000000002A
:1000D600000000000000000000000000000000001A
:1000E600000000000000000000000000000000000A
:1000F60000000000000000000000000000000000FA
:1001060000000000000000000000000000000000E9
:1001160000000000000000000000000000000000D9
:100126000000608401D6000000000000010000000D
:1001360000000300000000000500000000000600AB
:10014600000000000200000000001C00000000008B
:100156001D00000000001100000000001200000059
:10016600000013000000000014000000000015004D
:100176000000000016000000000010000000000053
:100186000A00000000000B00000000000C00000048
:1001960000000D00000000000E00000000000F002F
:1001A60000000000E2000000000046025A070000BE
:1001B6000000004601CAA0000000000046038C6152
:1001C600000000000046036EE20000000000460347
:1001D6007AE100000000004601D027700000000010
:1001E6004603801100000000004602601700000070
:1001F6000000460386A800000000004603740000C5
:0A02060000000000C104021C00000B
:10023B00E51C6003020396E51DB41B00400302039B
:10024B0096900253F82828730202A40202A9020214
:10025B00B00202B70202C00202C90202D20202DBE2
:10026B000202E40202ED0202F60202FE02030602A1
:10027B00030E02031602031E02032602032E0203C1
:10028B003602034002034A02035402035E02036870
:10029B000202B0020385020390C2910203967F967D
:1002AB007E000203807FF47E010203807B017A02D1
:1002BB00796C0203777B017A0279720203777B01F7
:1002CB007A0279780203777B017A02797E020377CF
:1002DB007B017A0279840203777B017A02798A02A5
:1002EB0003777B017A0279900203777B017A02799B
:1002FB00BA803E7B017A02799680717B017A027912
:10030B009C80697B017A0279A280617B017A0279F8
:10031B00A880597B017A0279AE80517B017A0279F0
:10032B00B480187B017A0279C080067B017A02794E
:10033B00C67D0680397B017A0279CC7D02802F7BCA
:10034B00017A0279D27D0280257B017A0279D87DF0
:10035B0002801B7B017A0279DE7D0280117B0130EA
:10036B0003067A02796680047A0279EA7D027C00C0
:10037B001206E280161208048011300304D2918019
:0F038B000AC2918006751C03751DE71207172221
:10054600E51C7049E51D14601414601314600E1444
:10055600602A14603224057034C291803080147B86
:10056600013003067A02796680047A0279EA120675
:10057600DE801A7FF47E011208048011300304D253
:1005860091800AC2918006751C03751DE712071734
:010596002242
:10049700E51C7050E51DB4080050499004A9F828E0
:1004A70028730204C10204EB0204C50204CD02044E
:1004B700D10204C10204DA0204E5C29180267B015D
:1004C7007A0179CA8013D291801A7F967E0012082A
:1004D7000480117B017A0179D01206DE8006751C33
:0804E70003751DE7120717223F
:10059700E51C7044E51D14601524FE601A14601FE5
:1005A70014602414602C2406702ED291802A7F9622
:1005B7007E0012080480217B017A03798C800E7BF0
:1005C700017A03796E80067B017A0179D01206DE03
:0C05D7008006751C03751DE71207172233
:0406DE007D027C001D
:1006E2008B618A628963AF05AE041207F5AB61AA1A
:0906F20062A96312065F02000315
:1006BD00E4FFFE740E2FF8E6FD74742FF5827403BB
:1006CD003EF583EDF00FBF00010EEF64064E70E3B3
:0106DD0022FA
:10071700E51DB4E70CE51CB40307E4F51CF51DD390
:0B07270022051DE51D7002051CC32209
:030804000207E503
:10062900E4F5B1F5B2F5B3F5B4F5ACF5AD43B310F6
:1006390053B4EF43B38053B47F53B1FE43B2014384
:10064900B10253B2FD43E90153E9FB43EA0153EB1C
:06065900FED2AAC29122AC
:0A0210004201C200004201BA0000E2
:0E07A600120629120786C2051207FFD2AF22E3
:1006FB002001189001C2E0FEA3E0FFEE700DEF1495
:0C070B00600604700602075E1207D02290
:10075E0012023B500E9001C3E004F070069001C2ED
:04076E00E004F02291
:0C07D000120597900375E06002B29622BB
:03000B000205E308
:1005E300C0E0C0F0C083C082C0D075D000C000C0DE
:1005F30001C002C003C004C005C006C00730010B20
:100603003002051207728003120732D007D006D0DA
:1006130005D004D003D002D001D000D0D0D082D0F6
:0606230083D0F0D0E032AC
:0300130002000EDA
:05000E00D204B28232B1
:10021A00025B0006024D0000024B0000C101C10052
:06022A0002490000C102C0
:0507F5008E5B8F5C2209
:0707EE007B007A00794F2225
:06065F008B648A658966C8
:10066500E4FFFED3EF955CE55B6480F8EE6480986B
:10067500501BAB64AA65A9668F828E8312043FFD69
:0D06850074552FF8A6050FBF00010E80D69A
:010692002245
:100732007455254CF9E4FAFB120693744F254CF9D3
:06074200E4FAFB0204EFE3
:1004EF008F5D8B5E8A5F8960E54E454D6002B290ED
:1004FF00209043E54D7015E54E24F8700FD280C261
:10050F0090E4F54DF54E1207480207DCC295E55D04
:10051F006004D2808002C280308113AB5EAA5FA9D3
:10052F0060120693EF2560F560E4355FF55F054EC9
:07053F00E54E7002054D229C
:10074800E55C24FFFFE55B34FFFEEFB54C07EEB533
:060758004B031207FA2218
:0507FA00D295C20122AE
:0907DC00054CE54C7002054B22AE
:10069300120426FFC3E54E9407E54D648094804021
:1006A300055307018013C37407954EFE7401A80612
:0906B300088002C333D8FC520791
:0106BC00221B
:10077200E54A45496009E54A154A7007154922C20A
:0407820002C201228C
:0907E5008E498F4AD202D2012292
:0507FF00A2059290220A
:08000300E4F54BF54CD201229B
:0A023000420558000742055A000875
:0E07B40012046CFF900558E5F0F0A3EFF02260
:0E07C20012046CFF90055AE5F0F0A3EFF02250
:0108070022CE
:0108080022CD
:0108090022CC
:01080A0022CB
:01080B0022CA
:100786005389F0438902758CFF758AF9D2A9D28CF8
:010796002240
:0300000002039A5E
:0C039A00787FE4F6D8FD7581660203E16F
:10042600BB010689828A83E0225002E722BBFE02D4
:09043600E32289828A83E4932207
:10043F00BB010CE58229F582E5833AF583E0225072
:10044F0006E92582F8E622BBFE06E92582F8E222BC
:0D045F00E58229F582E5833AF583E49322D6
:10046C00BB010A89828A83E0F5F0A3E0225006875B
:10047C00F009E71922BBFE07E3F5F009E31922891D
:0B048C00828A83E493F5F07401932250
:1003A600020797E493A3F8E493A34003F68001F2CF
:1003B60008DFF48029E493A3F85407240CC8C33358
:1003C600C4540F4420C8834004F456800146F6DF27
:1003D600E4800B0102040810204080900016E47EA1
:1003E600019360BCA3FF543F30E509541FFEE4931C
:1003F600A360010ECF54C025E060A840B8E493A3E3
:10040600FAE493A3F8E493A3C8C582C8CAC583CA0D
:10041600F0A3C8C582C8CAC583CADFE9DEE780BEC5
:01023A0000C3
:00000001FF
