:10035000E4F5B1F5B2F5B3F5B4F5ACF5AD53B1FED6
:1003600043B201D296D282D292120422C290751266
:10037000BBD201B296E50CB43802B2827F0A7E008D
:090380007D007C0012019780EA67
:03000B00020312DB
:10031200C0E0C0F0C083C082C0D075D000C000C0B1
:1003220001C002C003C004C005C006C007300103FB
:100332001203F8D007D006D005D004D003D002D0E3
:0E03420001D000D0D0D082D083D0F0D0E032F5
:08000300C28520A0FD02038963
:10038900C2857F007E007D007C00E4FB30A00DEF7C
:100399002401FFE43EFEE43DFDE43CFCD285780106
:1003A900120184C2850BBB18E3E4FBD28500C28528
:0803B9000BBB01F7ED6480FDB0
:0103C1002219
:04040F0002390000AE
:05044A008E1E8F1F2231
:010454002285
:0B043500E53A7006E5397002C2912222
:010455002284
:010456002283
:0A044000A292B39292E4FE33FF2271
:0E04130002180006020A000002080000C101E3
:100422005389F0438901758CFF758AFBD2A9D2AF3B
:03043200D28C2247
:1003F8007B007A0079121203C292037521007522DC
:070408000075230C0200F354
:1000F300752400752503209049E50A7017E50B2444
:10010300F87011D295D280D281C290C201E4F50A6F
:10011300F50B802EC295300304D2808002C280E5A5
:10012300251525AE24700215244E600E3081F0ABE8
:1001330021AA22A92312009A80E5050BE50B700280
:04014300050AB29067
:010147002295
:06009A008B268A2789284D
:1000A000120148FFE50B450A701CEF54FEC43333C0
:1000B000335480120161EFC313FFAB26AA27A9288E
:1000C0001201484F8029C3E50B9408E50A64809427
:1000D00080501FE50B150B7002150AAE0B7401A8BA
:1000E00006088002C333D8FC2FAB26AA27A9281202
:0200F0000161AC
:0100F20022EB
:1003C200120148FFE50B450A7003530701C3E50B11
:1003D2009408E50A648094805015E50B450A600F85
:1003E200AE0B7401A806088002C333D8FC5207EF93
:0503F2006002D322C3EC
:0103F70022E3
:05044F00A200929022C2
:100231008F1D8E1C8D1B8C1A538EF7438901D28C16
:10024100E4FFFEFDFCAB1DAA1CA91BA81AC31201E9
:10025100736025758A7E758CFF308DFDC28DE51D1D
:1002610024FFF51DE51C34FFF51CE51B34FFF51BD0
:0B027100E51A34FFF51A80C8C28C2289
:10027C008F308E2F8D2E8C2D538EF7438901D28C7F
:10028C00E4FFFEFDFCAB30AA2FA92EA82DC3120152
:10029C00736025758ACA758CFA308DFDC28DE53078
:1002AC0024FFF530E52F34FFF52FE52E34FFF52E26
:0B02BC00E52D34FFF52D80C8C28C2218
:1002C7008F348E338D328C31538EEF438910D28E1B
:1002D700E4FFFEFDFCAB34AA33A932A831C31201F7
:1002E700736025758BEA758DCB308FFDC28FE53432
:1002F70024FFF534E53334FFF533E53234FFF532C7
:0B030700E53134FFF53180C8C28E22C2
:100197008F2C8E2B8D2A8C2975C40743C408E4FF46
:1001A700FEFDFCAB2CAA2BA92AA829C31201736058
:1001B7002875C52C75C6CFE5C430E4FB53C4EFE5FD
:1001C7002C24FFF52CE52B34FFF52BE52A34FFF51E
:0D01D7002AE52934FFF52980C553C4F7221D
:1001E4008F388E378D368C3575C40743C408E4FFC9
:1001F400FEFDFCAB38AA37A936A835C312017360DB
:100204002875C5D875C6FFE5C430E4FB53C4EFE5D3
:100214003824FFF538E53734FFF537E53634FFF594
:0D02240036E53534FFF53580C553C4F722AB
:0300000002000EED
:0C000E00787FE4F6D8FD75813A020055B9
:10014800BB010689828A83E0225002E722BBFE02B5
:09015800E32289828A83E49322E8
:10016100BB010689828A83F0225002F722BBFE017D
:02017100F32277
:10017300EB9FF5F0EA9E42F0E99D42F0E89C45F0E2
:010183002259
:10018400E8600FEFC333FFEE33FEED33FDEC33FCD9
:03019400D8F1227D
:10001A00020350E493A3F8E493A34003F68001F2A9
:10002A0008DFF48029E493A3F85407240CC8C333E7
:10003A00C4540F4420C8834004F456800146F6DFB6
:10004A00E4800B010204081020408090040FE47E33
:10005A00019360BCA3FF543F30E509541FFEE493AB
:10006A00A360010ECF54C025E060A840B8E493A372
:10007A00FAE493A3F8E493A3C8C582C8CAC583CA9D
:10008A00F0A3C8C582C8CAC583CADFE9DEE780BE55
:0104210000DA
:00000001FF
