:1007B10012076C12079EC2011207CB12075080FB71
:08000300C28520A0FD02060EDB
:10060E00C2857F007E007D007C00E4FB30A00DEFF4
:10061E002401FFE43EFEE43DFDE43CFCD28578017E
:10062E0012016DC2850BBB18E3E4FBD28500C285B7
:08063E000BBB01F7ED6480FD28
:010646002291
:10078600277000000000E2FF00000000E1FF00000B
:08079600000007000000000054
:10027800603C000020030000000021000000000096
:10028800230300000000256E000000002606000081
:10029800000022010000000031010000000030567B
:1002A800565656742A5656565672E2FF00000000FB
:1002B800603C003C200200040505210B0C0D0E05D6
:1002C8002302030405052502030405052602030489
:1002D80005052202030405052A0203040505305614
:1002E800565656742A5656565672E2FF03040505AA
:0D02F800023E0000460078000000000000FB
:100180008B308A318932E53E600302025DE53FB47F
:100190000D00400302025D90019EF82828730201C1
:1001A000C50201CA0201D80201E00201ED0201FA12
:1001B00002020702021402022102023002023F027E
:1001C0000253020257C29102025D7F0A7E007D0047
:1001D0007C001204FD02025DAB30AA31A932804CD2
:1001E000AB30E5322406F9E43531FA803FAB30E537
:1001F00032240CF9E43531FA8032AB30E532241286
:10020000F9E43531FA8025AB30E5322418F9E435CC
:1002100031FA8018AB30E532241EF9E43531FA802A
:100220000BAB30E5322424F9E43531FA7D02801C31
:10023000AB30E532242AF9E43531FA7D06800DAB86
:1002400030E5322430F9E43531FA7D067C001205C0
:1002500090800AD2918006753E03753FE7E53FB472
:10026000E70CE53EB40307E4F53EF53FD322053F36
:08027000E53F7002053EC322C8
:1006AE00E53F7006E53E7002C291E53FB4E70CE50A
:1006BE003EB40307E4F53EF53FD322053FE53F7018
:0506CE0002053EC322FD
:10042600E53E7058E53FB407005051900438F8286F
:10043600287302044D0204510204560204580204B1
:100446006E02047302047CC2918031120714802C60
:100456008016900078E030E61D7B007A0079617D99
:10046600067C0012059080141206D3800F1203AA90
:1004760050028008C322753E03753FE7E53FB4E7A7
:100486000CE53EB40307E4F53EF53FD322053FE510
:070496003F7002053EC32286
:0A0590008B338A3489358C368D37A1
:10059A00E4FFFED3EF9537E5366480F8EE64809881
:1005AA00501BAB33AA34A9358F828E8312011DFDED
:1005BA0074122FF8A6050FBF00010E80D6853618D3
:0605CA008537190207D37A
:1006F400781A7C007D007BFF7A0779867E007F066E
:100704001200DE7B007A00791A7D027C00020590DB
:1003AA0078217C007D007BFF7A07798C7E007F06AE
:1003BA001200DE78277C007D007BFF7A0779927E27
:1003CA00007F061200DEE53E7037E53F1460111427
:1003DA00601614602214602324047025C2918021BF
:1003EA007B007A00792180067B007A0079277D02DA
:1003FA007C00120590800AD2918006753E03753FF3
:10040A00E7E53FB4E70CE53EB40307E4F53EF53F04
:0B041A00D322053FE53F7002053EC302
:0104250022B4
:1007140078387C007D007BFF7A0779987E007F061D
:100724001200DE7B007A0079387D017C000205909E
:1006D300E4FFFE740C2FF8E6FD74782FF5827400A6
:1006E3003EF583EDF00FBF00010EEF64064E70E39D
:0106F30022E4
:0107D6002200
:0307D000A29422CE
:0A07C100A292B39292E4FE33FF22ED
:10076C00E4F5B1F5B2F5B3F5B4F5ACF5AD43B310B2
:0A077C0053B4EF53B1FE43B2012263
:0E03050002180006020A000002080000C102F1
:10079E005389F0438901758CFF758AFBD2A9D2AFBC
:0307AE00D28C22C8
:1007340074122509F9E4FAFB1206479200740C2599
:0C07440009F9E4F52DF52E892F02049D23
:10049D00E50B450A6002B290209054E50A7036E5EE
:1004AD000B24F87030D280D281C290E4F50AF50B9E
:1004BD00E51924FFFFE51834FFFEEFB5090EEEB583
:1004CD00080AD295E4F508F509C202220509E509E5
:1004DD00701D050822C295A2009280308109AB2DB6
:1004ED00AA2EA92F12067D050BE50B7002050A2217
:10067D00120104FFE50B450A70047480801FC3E569
:10068D000B9408E50A648094805015E50B14FE74F4
:10069D0001A806088002C333D8FC2FFFEF12014AD0
:0106AD00222A
:10064700120104FFE50B450A7003530701C3E50BCD
:100657009408E50A648094805015E50B450A600FFD
:10066700AE0B7401A806088002C333D8FC5207EF0B
:050677006002D322C364
:01067C00225B
:0507CB00A20192902242
:0307D300D202222D
:0A031300420080000042007E00025C
:10075000200218900080E0FEA3E0FFEE700DEF1481
:0C076000600604700602054A1207D7224A
:10054A0090007EE0FEA3E0FFEE703AEF24FE601C0E
:10055A000470327B017A00793C120180500E9000BF
:10056A0081E004F07006900080E004F07B017A00DC
:10057A007900120180500E900081E004F07006901C
:06058A000080E004F022F5
:0107D70022FF
:03000B000205D01B
:1005D000C0E0C0F0C083C082C0D075D000C000C0F1
:1005E00001C002C003C004C005C006C0073002033A
:1005F000120734D007D006D005D004D003D002D0E3
:0E06000001D000D0D0D082D083D0F0D0E03234
:1004FD008F368E358D348C3375C40743C408E4FFB5
:10050D00FEFDFCAB36AA35A934A833C312015C60DD
:10051D002875C52C75C6CFE5C430E4FB53C4EFE593
:10052D003624FFF536E53534FFF535E53434FFF582
:0D053D0034E53334FFF53380C553C4F72295
:0300000002031EDA
:0C031E00787FE4F6D8FD75813F0203658E
:10000E00E709F608DFFA8046E709F208DFFA803ED4
:10001E0088828C83E709F0A3DFFA8032E309F608C1
:10002E00DFFA8078E309F208DFFA807088828C8329
:10003E00E309F0A3DFFA806489828A83E0A3F608DD
:10004E00DFFA805889828A83E0A3F208DFFA804CB7
:10005E0080D280FA80C680D4806980F2803380108E
:10006E0080A680EA809A80A880DA80E280CA8033F7
:10007E0089828A83ECFAE493A3C8C582C8CCC5836F
:10008E00CCF0A3C8C582C8CCC583CCDFE9DEE7803F
:10009E000D89828A83E493A3F608DFF9ECFAA9F0BE
:1000AE00EDFB2289828A83ECFAE0A3C8C582C8CC14
:1000BE00C583CCF0A3C8C582C8CCC583CCDFEADE2D
:1000CE00E880DB89828A83E493A3F208DFF980CC8F
:1000DE0088F0EF60010E4E60C388F0ED2402B40488
:1000EE000050B9F582EB2402B4040050AF2323452F
:0600FE00822390005E73F6
:10010400BB010689828A83E0225002E722BBFE02F9
:09011400E32289828A83E493222C
:10011D00BB010CE58229F582E5833AF583E0225097
:10012D0006E92582F8E622BBFE06E92582F8E222E1
:0D013D00E58229F582E5833AF583E49322FB
:10014A00BB010689828A83F0225002F722BBFE0194
:02015A00F3228E
:10015C00EB9FF5F0EA9E42F0E99D42F0E89C45F0F9
:01016C002270
:10016D00E8600FEFC333FFEE33FEED33FDEC33FCF0
:03017D00D8F12294
:10032A000207B1E493A3F8E493A34003F68001F231
:10033A0008DFF48029E493A3F85407240CC8C333D4
:10034A00C4540F4420C8834004F456800146F6DFA3
:10035A00E4800B0102040810204080900278E47EB9
:10036A00019360BCA3FF543F30E509541FFEE49398
:10037A00A360010ECF54C025E060A840B8E493A35F
:10038A00FAE493A3F8E493A3C8C582C8CAC583CA8A
:10039A00F0A3C8C582C8CAC583CADFE9DEE780BE42
:01031D0000DF
:00000001FF
