:0F09B6001209E37F647E00120A051208FD80FB20
:10001600C1836084047E200F0000000021000000E0
:100026000000230300000000256E000000002605E6
:1000360000000000221F000000003C00000000003D
:100046003D00000000003101000000003201000008
:1000560000003301000000003401000000003501FB
:10006600000000003601000000003058585858586B
:100076002A58585858582B56565656562C71000022
:1000860000002D77000000002E65000000002F699B
:1000960000000000E2FF0000000060840502200E60
:1000A600000000000000000000000000000000004A
:1000B600000000000000000000000000000000003A
:1000C600000000000000000000000000000000002A
:1000D600000000000000000000000000000000001A
:1000E600000000000000000000000000000000000A
:1000F60000000000000000000000000000000000FA
:1001060000000000000000000000000000000000E9
:1001160000000000000000000000000000000000D9
:100126000000608403EE00000000000001000000F3
:1001360000000300000000000500000000000600AB
:10014600000000000200000000001C00000000008B
:100156001D00000000001100000000001200000059
:10016600000013000000000014000000000015004D
:100176000000000016000000000010000000000053
:100186000A00000000000B00000000000C00000048
:1001960000000D00000000000E00000000000F002F
:1001A60000000000E20000000000460472070000A4
:1001B6000000004603E2A0000000000046059E6124
:1001C6000000000000460586E2000000000046052B
:1001D6008CE100000000004603E8277000000000E4
:1001E6004605921100000000004604781700000042
:1001F6000000460598A80000000000860C000000DC
:09020600000000C1040210000018
:10027400E51060030203CFE511B41B004003020341
:10028400CF90028CF82828730202DD0202E20202F7
:10029400E90202F00202F902030202030B02031450
:1002A40002031D02032602032F02033702033F0247
:1002B400034702034F02035702035F02036702036B
:1002C4006F02037902038302038D0203970203A1E1
:1002D4000202E90203BE0203C9C2910203CF7F9660
:1002E4007E000203B97FF47E010203B97B017A0424
:1002F40079840203B07B017A04798A0203B07B011A
:100304007A0479900203B07B017A0479960203B0EF
:100314007B017A04799C0203B07B017A0479A202FE
:1003240003B07B017A0479A80203B07B017A0479D3
:10033400D2803E7B017A0479AE80717B017A0479A4
:10034400B480697B017A0479BA80617B017A04798B
:10035400C080597B017A0479C680517B017A047983
:10036400CC80187B017A0479D880067B017A0479E1
:10037400DE7D0680397B017A0479E47D02802F7B5F
:10038400017A0479EA7D0280257B017A0479F07D83
:1003940002801B7B017A0479F67D0280117B013097
:1003A40003067A04797E80047A0579027D027C0052
:1003B4001208E48016120A608011300304D291807E
:0F03C4000AC29180067510037511E712093422E1
:10071700E5107049E51114601414601314600E1489
:10072700602A14603224057034C291803080147BB3
:10073700013003067A04797E80047A05790212086B
:10074700E0801A7FF47E01120A608011300304D220
:1007570091800AC29180067510037511E71209345A
:01076700226F
:1006BF00E5107050E511B4080050499006D1F828A4
:1006CF0028730206E90207130206ED0206F5020679
:1006DF00F90206E902070202070DC29180267B018B
:1006EF007A0379E28013D291801A7F967E00120AE4
:1006FF006080117B017A0379E81208E0800675109B
:08070F00037511E71209342201
:10076800E5107044E51114601524FE601A14601F2A
:1007780014602414602C2406702ED291802A7F964F
:100788007E00120A6080217B017A05799E800E7BAB
:10079800017A05798680067B017A0379E81208E0F8
:0C07A80080067510037511E71209342259
:0408E0007D027C0019
:1008E4008B168A178918AF05AE0412000EAB16AA30
:0908F40017A918120830020A3B92
:10091900E4FFFE74122FF8E2FD740C2FF8EDF20FCC
:0A092900BF00010EEF64064E70E9F6
:0109330022A1
:10093400E511B4E70CE510B40307E4F510F511D3A1
:0B094400220511E51170020510C3220E
:030A6000020A0582
:1007FA00E4F5B1F5B2F5B3F5B4F5ACF5AD43B31024
:10080A0053B4EF43B38053B47F53B1FE43B20143B1
:10081A00B10253B2FD43E90153E9FB43EA0153EB49
:06082A00FED2AAC29122D9
:0A020F0042020400004201F8000062
:0E09E3001207FA1209A5C20C120A56D2AF2250
:1008FD00200118900204E0FEA3E0FFEE700DEF144E
:0C090D00600604700602097D1209F12248
:10097D00120274500E900205E004F070069002040D
:04098D00E004F02270
:0B09F100120768780DE26002B2962247
:03000B000207B435
:1007B400C0E0C0F0C083C082C0D075D000C000C00B
:1007C40001C002C003C004C005C006C00730010B4D
:1007D400300205120991800312094FD007D006D0C8
:1007E40005D004D003D002D001D000D0D0D082D024
:0607F40083D0F0D0E032DA
:03000300020A6F7F
:010A6F003254
:03001300020006E2
:05000600D204B28232B9
:100219008630000000000000862A0000000000006F
:1002290002380006023600000232000002340000E3
:06023900C101C100C10279
:05000E008E388F39223D
:070A43007BFE7A00792A22F4
:060830008B198A1A891BD6
:10083600E4FFFED3EF9539E5386480F8EE648098DE
:10084600501BAB19AA1AA91B8F828E83120601FDB3
:0D08560074302FF8EDF20FBF00010E80D6B8
:010863002272
:10094F0074302533F9E4FA7BFE120864742A2533D8
:08095F00F9E4FA7BFE020654E4
:100654008F128B138A148915E53745366004B290DE
:100664008005309002B290209045E5367017E5374A
:1006740024F87011D280C290E4F536F53712096778
:100684001209FC802AC295E5126004D2808002C25D
:1006940080308113AB13AA14A915120864EF251531
:1006A400F515E43514F5140537E53770020536E51C
:0B06B4003745367005309002B29022EE
:10096700E53924FFFFE53834FFFEEFB53307EEB571
:060977003203120A5122B6
:050A5100D295C2012254
:0909FC000533E5337002053222D7
:100864001205E8FDC3E5379407E5366480948040BB
:10087400047F018017C374079537FF74017E00A8B5
:1008840007088005C333CE33CED8F9FFEF5205AF46
:01089400055E
:010895002240
:10099100E53545346009E53515357007153422C252
:0409A10002C201226B
:090A05008E348F35D202D2012299
:050A5600A20C929022A9
:080A3B00E4F532F533D201228B
:10023F00C105C1064405B0000000004405B400002C
:02024F000000AD
:030A6300A20622C6
:010A70002263
:0F09C500C2067F1B7E00120A29120A69020A0E5F
:0F09D400D2067F1A7E00120A29120A69020A0E41
:030A6600D2052294
:090A0E003005057F01120A6C227B
:010A71002262
:10025100C108C1074205CE00214205C2000742057F
:10026100CC00084205C000064205BE00004205D68A
:0202710000008B
:090A17009005C2EEF0A3EFF022FD
:090A20009005CCEEF0A3EFF022EA
:090A29009005CEEEF0A3EFF022DF
:090A32009005C6EEF0A3EFF022DE
:030A6900D208228E
:100896008F1F8E1E8D1D8C1CE49005D2F0A3EFF0E9
:1008A600E4FFE4FDFC780812064078081206409042
:0808B60005CAEEF0A3EFF022E9
:1008BE00E4F53DF53CF53BF53A9005D0E0FEA3E0BE
:1008CE00FFEF253DFFEE353CFEE4353BFDE4353ACA
:0108DE00FC1D
:0108DF0022F6
:030A6C000205720E
:100572008F3E9005BEE0FEA3E0FF4E6004B2858090
:1005820005308502B28520854DEE700AEF24DF70BA
:1005920005120A4A8040E53E14600A04700D1203F7
:1005A200D392A0800630A0031204ED9005BFE004B0
:1005B200F070069005BEE004F09005CEE0FEA3E0E8
:1005C200FF9005BEE0B5060EA3E0B507099005BE93
:1005D200E4F0A37421F09005BEE07002A3E0600590
:0605E200308502B2852203
:070A4A00C208C285C2A02210
:010A72002261
:050A5B00A20B928522B0
:1003D3009005BEE0FEA3E0FFD3940FEE648094800B
:1003E300501674017E00A807088005C333CE33CEB0
:1003F300D8F9FF9005D280519005BEE07004A3E0C8
:10040300641070059005D2800F9005BEE07004A3C0
:10041300E06420700E9005CAE0FEA3E0FF7C807DBF
:1004230000802B9005BEE0FEA3E0FFD39410EE64A2
:10043300809480402074017E00A807088005C333A0
:10044300CE33CED8F9FF9005CAE0FCA3E0FD120637
:0D0453002EAA06AB07EB4A6003D38001C35D
:010460002279
:1004ED009005BEE0FEA3E0FFD3940FEE64809480F0
:1004FD00501C74017E00A807088005C333CE33CE8F
:10050D00D8F9FF9005D1E02FF09005D080539005DC
:10051D00BEE0FEA3E0FF64104E700C9005D1E02408
:10052D0000F09005D08010EF64204E700F9005C93B
:10053D00E02400F09005C8E03480F022D3EF941051
:10054D00EE64809480401D74017E00A8070880052C
:10055D00C333CE33CED8F9FF9005C9E02FF0900507
:05056D00C8E03EF02291
:1009A5005389F0438902758CFF758AF9D2A9D28CD7
:0109B500221F
:0300000002046196
:0C046100787FE4F6D8FD75813E0204A807
:1005E800BB010689828A83E0225002E722BBFE0211
:0905F800E32289828A83E4932244
:10060100BB010CE58229F582E5833AF583E02250AE
:1006110006E92582F8E622BBFE06E92582F8E222F8
:0D062100E58229F582E5833AF583E4932212
:10062E00EF8DF0A4A8F0CF8CF0A428CE8DF0A42EE0
:02063E00FE229A
:10064000E86010ECA2E713FCED13FDEE13FEEF13D0
:04065000FFD8F022BD
:10046D000209B6E493A3F8E493A34003F68001F2E6
:10047D0008DFF48029E493A3F85407240CC8C33390
:10048D00C4540F4420C8834004F456800146F6DF5F
:10049D00E4800B0102040810204080900016E47ED9
:1004AD00019360BCA3FF543F30E509541FFEE49354
:1004BD00A360010ECF54C025E060A840B8E493A31B
:1004CD00FAE493A3F8E493A3C8C582C8CAC583CA46
:1004DD00F0A3C8C582C8CAC583CADFE9DEE780BEFE
:01027300008A
:00000001FF
