:10031C0012030212032FC2011203651202BA120356
:03032C004280FB11
:08000300C28520A0FD0201E10D
:1001E100C2857F007E007D007C00E4FB30A00DEF26
:1001F1002401FFE43EFEE43DFDE43CFCD2857801B0
:100201001200F2C2850BBB18E3E4FBD28500C28564
:080211000BBB01F7ED6480FD59
:0102190022C2
:10021A0046000601020304050046000009121314F1
:10022A000500062701020304050006210102030452
:06023A000500022D00008A
:03036A00C291221B
:1002BA00C291E52D701DE52E14600B0470157B01AB
:1002CA007A00790680067B017A0079007D047C0039
:0C02DA00120163052EE52E7002052D2296
:03036D00C2912218
:0A0163008B348A3589368C378D38CD
:10016D00E4FFFED3EF9538E5376480F8EE648098B0
:10017D00501BAB34AA35A9368F828E831200B3FD86
:10018D0074122FF8A6050FBF00010E80D685371803
:05019D00853819D202B3
:0101A200223A
:07035E007B007A0079002208
:01037000226A
:010371002269
:010372002268
:010373002267
:0A035400A292B39292E4FE33FF225E
:10030200E4F5B1F5B2F5B3F5B4F5ACF5AD53B1FE24
:0A03120043B201D296D282D29222A9
:0E02400002180006020A000002080000C102B7
:10032F005389F0438901758CFF758AFBD2A9D2AF2F
:03033F00D28C223B
:1002E60074122509F9E4FAFB1202539200740C25E4
:0C02F60009F9E4F52FF53089310201050B
:10010500753200753302E50B450A6002B290209006
:100115004CE50A702EE50B24F87028D280D281C2F6
:1001250090E4F50AF50BE509B5190FE508B5180AC8
:10013500D295E4F508F509C202220509E509701D05
:10014500050822C295A2009280308109AB2FAA3002
:0D015500A931120289050BE50B7002050AA5
:01016200227A
:1002890012009AFFE50B450A70047480801FC3E5CC
:100299000B9408E50A648094805015E50B14FE74EC
:1002A90001A806088002C333D8FC2FFFEF1200E033
:0102B9002222
:1002530012009AFFE50B450A7003530701C3E50B30
:100263009408E50A648094805015E50B450A600FF5
:10027300AE0B7401A806088002C333D8FC5207EF03
:050283006002D322C35C
:010288002253
:05036500A201929022AC
:04024E00021A000090
:10034200300203C29222E51B7007E51A7003120203
:02035200BA22CD
:03000B000201A34C
:1001A300C0E0C0F0C083C082C0D075D000C000C022
:1001B30001C002C003C004C005C006C0073002036B
:1001C3001202E6D007D006D005D004D003D002D067
:0E01D30001D000D0D0D082D083D0F0D0E03266
:0300000002000EED
:0C000E00787FE4F6D8FD758138020055BB
:10009A00BB010689828A83E0225002E722BBFE0264
:0900AA00E32289828A83E4932297
:1000B300BB010CE58229F582E5833AF583E0225002
:1000C30006E92582F8E622BBFE06E92582F8E2224C
:0D00D300E58229F582E5833AF583E4932266
:1000E000BB010689828A83F0225002F722BBFE01FF
:0200F000F322F9
:1000F200E8600FEFC333FFEE33FEED33FDEC33FC6C
:03010200D8F1220F
:10001A0002031CE493A3F8E493A34003F68001F2DD
:10002A0008DFF48029E493A3F85407240CC8C333E7
:10003A00C4540F4420C8834004F456800146F6DFB6
:10004A00E4800B010204081020408090021AE47E2A
:10005A00019360BCA3FF543F30E509541FFEE493AB
:10006A00A360010ECF54C025E060A840B8E493A372
:10007A00FAE493A3F8E493A3C8C582C8CAC583CA9D
:10008A00F0A3C8C582C8CAC583CADFE9DEE780BE55
:0102520000AB
:00000001FF
