:1008EA0012090C7F647E0012093A2001FDD2908021
:0108FA00F904
:08000300C28520A0FD02078761
:10078700C2857F007E007D007C00E4FB30A00DEF7A
:100797002401FFE43EFEE43DFDE43CFCD285780104
:1007A7001204C3C2850BBB18E3E4FBD28500C285E4
:0807B7000BBB01F7ED6480FDAE
:0107BF002217
:0609520007000000000098
:1000160060840096200F0000000021000000000010
:10002600230300000000256E0000000026050000E6
:100036000000221F000000003C00000000003D0000
:100046000000000031010000000032010000000045
:1000560033010000000034010000000035010000FB
:1000660000003601000000003058585858582A58E9
:10007600585858582B56565656562C7100000000A4
:100086002D77000000002E65000000002F6900009B
:100096000000E2FF000000006084011A200E00004C
:1000A600000000000000000000000000000000004A
:1000B600000000000000000000000000000000003A
:1000C600000000000000000000000000000000002A
:1000D600000000000000000000000000000000001A
:1000E600000000000000000000000000000000000A
:1000F60000000000000000000000000000000000FA
:1001060000000000000000000000000000000000E9
:1001160000000000000000000000000000000000D9
:100126006084000C000000000000010000000000D8
:1001360003000000000005000000000006000000AB
:1001460000000200000000001C00000000001D006E
:100156000000000011000000000012000000000076
:10016600130000000000140000000000150000004D
:1001760000001600000000001000000000000A0049
:10018600000000000B00000000000C000000000052
:100196000D00000000000E00000000000F0000002F
:1001A6000000E20000000000460000A00000000081
:1001B600004601BC61000000000046019EE200000E
:1001C6000000004601AAE1000000000046000627E4
:1001D60070000000004601B011000000000046005B
:1001E600901700000000004601B6A80000000000BD
:0F01F6004601A4000000000000C1050232000015
:10022A008B2C8A2D892EE5326003020383E533B4D1
:10023A001B004003020383900248F8282873020235
:10024A009902038302029E0202A10202AA0202B2D8
:10025A000202BA0202C20202CA0202D20202DA028C
:10026A0002E20202EA0202F20202FA0203020203B2
:10027A000A02031202031A0203290203380203477D
:10028A0002035602036502029E02037902037DC23B
:10029A0091020383020374AB2CE52E240602032F7A
:1002AA00AB2CE52E240C807DAB2CE52E2412807518
:1002BA00AB2CE52E2418806DAB2CE52E241E806510
:1002CA00AB2CE52E2424805DAB2CE52E242A805508
:1002DA00AB2CE52E2454803EAB2CE52E24308045F1
:1002EA00AB2CE52E2436803DAB2CE52E243C803504
:1002FA00AB2CE52E2442802DAB2CE52E24488025FC
:10030A00AB2CE52E244E801DAB2CE52E245A8006FC
:10031A00AB2CE52E2460F9E4352DFA7D068044AB3A
:10032A002CE52E2466F9E4352DFA7D028035AB2CB6
:10033A00E52E246CF9E4352DFA7D028026AB2CE5F6
:10034A002E2472F9E4352DFA7D028017AB2CE52EA6
:10035A002478F9E4352DFA7D028008AB2CAA2DA960
:10036A002E7D027C00120747800F12094B800AD2A9
:0D037A009180067532037533E712087D226D
:1006FE008B2F8A308931E5327037E533146014144C
:10070E00601314600E14601D14602024057022C244
:10071E0091801E800BAB2FAA30A931120743801196
:10072E0012094B800CA20492918006753203753328
:05073E00E712087D2216
:1005C600E532705AE533B40A0050539005D8F8283E
:1005D60028730205F60205FA02060202062402063E
:1005E6002402060A02060E0205F602061302061E7B
:1005F600C291802A9000017430F080227B017A003B
:100606007900800FD291801612094B80117B017AF6
:1006160000790612074380067532037533E7120820
:020626007D2233
:10062800E5327042E53324FE601624FE601724FD8F
:10063800601B1460201460282408702AD291802638
:1006480012094B80217B017A0179BC800E7B017AEB
:1006580001799E80067B017A00790612074380069D
:0A0668007532037533E712087D2296
:040743007D027C00B7
:0A0747008B278A2889298C2A8D2B24
:10075100E4FFFED3EF952BE52A6480F8EE648098E0
:10076100501BAB27AA28A9298F828E83120496FDDC
:1007710074142FF8A6050FBF00010E80D6852A1A22
:06078100852B1B02094359
:0D091A007B017A0079067D027C0002074710
:1008410078217C007D007BFF7A0979527E007F064A
:100851001204577B007A0079217D017C0002074751
:10082000E4FFFE740E2FF8E6FD74A42FF582740128
:100830003EF583EDF00FBF00010EEF64064E70E34E
:010840002295
:10087D00E533B4E70CE532B40307E4F532F533D3D1
:0B088D00220533E53370020532C32260
:04094B007F017E00AA
:03094F0002093A60
:01096500226F
:03096200A294223A
:0A092700A292B39292E4FE33FF2285
:1007C000E4F5B1F5B2F5B3F5B4F5ACF5AD43B3105E
:1007D00053B4EF43B38053B47F53B1FE43B20143EC
:1007E000B10253B2FD43E90153E9FB43EA0153EB84
:0607F000FED2AAC2912214
:0C0205004201C400004201C20002C10618
:0E090C001207C01208FBC20712095DD2AF220B
:100861002001189001C4E0FEA3E0FFEE700DEF142B
:0C08710060060470060206721208D8220D
:100672009001C2E0FEA3E0FFEE703AEF24FE601CA0
:100682000470327B017A01791A12022A500E90010B
:10069200C5E004F070069001C4E004F07B017A002A
:1006A200799612022A500E9001C5E004F07006906D
:0606B20001C4E004F02287
:1008D8001206285002B2829001A5E064306002B28C
:0208E800962256
:03000B000206B832
:1006B800C0E0C0F0C083C082C0D075D000C000C008
:1006C80001C002C003C004C005C006C00730010B4A
:1006D8003003051208C48003120898D007D006D04A
:1006E80005D004D003D002D001D000D0D0D082D021
:0606F80083D0F0D0E032D7
:0300130002000EDA
:05000E00D205B28232B0
:10021100021A0006020C0000020A0000C101C1001E
:0802210002080000C103C10244
:1008FB005389F0438902758CFF758AF9D2A9D28C82
:01090B0022C9
:100898007414250BF9E4FAFB1207F6740E250BF90C
:0608A800E4FAFB02056208
:100562008F1C8B1D8A1E891FE50D450C6002B290FF
:10057200209050E50C7015E50D24F8700FD280C262
:1005820090E4F50CF50D1208AE020931C295E51C96
:100592006004D2808002C280308113AB1DAA1EA9E2
:1005A2001F1207F6EF251FF51FE4351EF51EE50D98
:1005B2006407450C7005F50C750D07050DE50D700A
:0405C20002050C2200
:1008AE00E51B24FFFFE51A34FFFEEFB50B07EEB58F
:0608BE000A031209582292
:05095800D295C201224E
:09093100050BE50B7002050A221A
:1007F60012047DFFC3E50D9407E50C6480948040E8
:10080600055307018013C37407950DFE7401A806EE
:09081600088002C333D8FC52072C
:01081F0022B6
:1008C400E50945086009E50915097007150822C2FC
:0408D40003C2012238
:09093A008E088F09D203D20122BC
:05095D00A207929022A8
:08094300E4F50AF50BD20122D4
:030000000204D621
:0C04D600787FE4F6D8FD75813302051D27
:10038700E709F608DFFA8046E709F208DFFA803E58
:1003970088828C83E709F0A3DFFA8032E309F60845
:1003A700DFFA8078E309F208DFFA807088828C83AD
:1003B700E309F0A3DFFA806489828A83E0A3F60861
:1003C700DFFA805889828A83E0A3F208DFFA804C3B
:1003D70080D280FA80C680D4806980F28033801012
:1003E70080A680EA809A80A880DA80E280CA80337B
:1003F70089828A83ECFAE493A3C8C582C8CCC583F3
:10040700CCF0A3C8C582C8CCC583CCDFE9DEE780C2
:100417000D89828A83E493A3F608DFF9ECFAA9F041
:10042700EDFB2289828A83ECFAE0A3C8C582C8CC97
:10043700C583CCF0A3C8C582C8CCC583CCDFEADEB0
:10044700E880DB89828A83E493A3F208DFF980CC12
:1004570088F0EF60010E4E60C388F0ED2402B4040B
:100467000050B9F582EB2402B4040050AF232345B2
:0604770082239003D773FD
:10047D00BB010689828A83E0225002E722BBFE027D
:09048D00E32289828A83E49322B0
:10049600BB010CE58229F582E5833AF583E022501B
:1004A60006E92582F8E622BBFE06E92582F8E22265
:0D04B600E58229F582E5833AF583E493227F
:1004C300E8600FEFC333FFEE33FEED33FDEC33FC97
:0304D300D8F1223B
:1004E2000208EAE493A3F8E493A34003F68001F23E
:1004F20008DFF48029E493A3F85407240CC8C3331B
:10050200C4540F4420C8834004F456800146F6DFE9
:10051200E4800B0102040810204080900016E47E63
:10052200019360BCA3FF543F30E509541FFEE493DE
:10053200A360010ECF54C025E060A840B8E493A3A5
:10054200FAE493A3F8E493A3C8C582C8CAC583CAD0
:10055200F0A3C8C582C8CAC583CADFE9DEE780BE88
:0102290000D4
:00000001FF
