:080003001208E212083080FB34
:08091900C28520A0FD02078049
:10078000C2857F007E007D007C00E4FB30A00DEF81
:100790002401FFE43EFEE43DFDE43CFCD28578010B
:1007A0001204BDC2850BBB18E3E4FBD28500C285F1
:0807B0000BBB01F7ED6480FDB5
:0107B800221E
:06093000070000000000BA
:1000160060840096200F0000000021000000000010
:10002600230300000000256E0000000026050000E6
:100036000000221F000000003C00000000003D0000
:100046000000000031010000000032010000000045
:1000560033010000000034010000000035010000FB
:1000660000003601000000003058585858582A58E9
:10007600585858582B56565656562C7100000000A4
:100086002D77000000002E65000000002F6900009B
:100096000000E2FF000000006084011A200E00004C
:1000A600000000000000000000000000000000004A
:1000B600000000000000000000000000000000003A
:1000C600000000000000000000000000000000002A
:1000D600000000000000000000000000000000001A
:1000E600000000000000000000000000000000000A
:1000F60000000000000000000000000000000000FA
:1001060000000000000000000000000000000000E9
:1001160000000000000000000000000000000000D9
:1001260060840012000000000000010000000000D2
:1001360003000000000005000000000006000000AB
:1001460000000200000000001C00000000001D006E
:100156000000000011000000000012000000000076
:10016600130000000000140000000000150000004D
:1001760000001600000000001000000000000A0049
:10018600000000000B00000000000C000000000052
:100196000D00000000000E00000000000F0000002F
:1001A6000000E20000000000460000A00000000081
:1001B600004601BC61000000000046019EE200000E
:1001C6000000004601AAE1000000000046000627E4
:1001D60070000000004601B011000000000046005B
:1001E6000C1700000000004601B6A8000000000041
:0F01F6004601A4000000000000C1030233000016
:100224008B258A268927E533600302037DE534B4F0
:100234001B00400302037D900242F8282873020247
:100244009302037D02029802029B0202A40202AC02
:100254000202B40202BC0202C40202CC0202D402B0
:1002640002DC0202E40202EC0202F40202FC0203D7
:100274000402030C020314020323020332020341A7
:1002840002035002035F020298020373020377C25F
:100294009102037D02036EAB25E5272406020329A0
:1002A400AB25E527240C807DAB25E527241280753A
:1002B400AB25E5272418806DAB25E527241E806532
:1002C400AB25E5272424805DAB25E527242A80552A
:1002D400AB25E5272454803EAB25E5272430804513
:1002E400AB25E5272436803DAB25E527243C803526
:1002F400AB25E5272442802DAB25E527244880251E
:10030400AB25E527244E801DAB25E527245A80061E
:10031400AB25E5272460F9E43526FA7D068044AB55
:1003240025E5272466F9E43526FA7D028035AB25D8
:10033400E527246CF9E43526FA7D028026AB25E511
:10034400272472F9E43526FA7D028017AB25E527C8
:100354002478F9E43526FA7D028008AB25AA26A97B
:10036400277D027C00120740800F120929800AD2DF
:0D0374009180067533037534E712084C22A2
:1006F7008B1C8A1D891EE5337037E534146014148A
:10070700601314600E14601D14602024057022C24B
:1007170091801E800BAB1CAA1DA91E12073C8011DD
:10072700120929800CA20292918006753303753451
:05073700E712084C224E
:10055C00E5337060E534B40A00505990056EF82804
:10056C00287302058C0205900205980205C002054D
:10057C00C00205A00205A402058C0205AF0205BA53
:10058C00C2918030900001E004F080287B017A0059
:10059C0079008015D291801C12092912092912099F
:1005AC002980117B017A00790612073C800675338D
:0805BC00037534E712084C221C
:10061B00E5337048E53424FE601624FE601D24FD8E
:10062B00602114602614602E24087030D291802C27
:10063B0012092912092912092980217B017A0179D2
:10064B00BC800E7B017A01799E80067B017A007952
:10065B000612073C80067533037534E712084C22EB
:04073C007D027C00BE
:0A0740008B288A29892A8C2B8D2C26
:10074A00E4FFFED3EF952CE52B6480F8EE648098E5
:10075A00501BAB28AA29A92A8F828E83120490FDE6
:10076A0074142FF8A6050FBF00010E80D6852B1A28
:06077A00852C1B02092181
:0D08F0007B017A0079067D027C0002074042
:10081000782D7C007D007BFF7A0979307E007F0691
:100820001204517B007A00792D7D017C0002074083
:1007EF00E4FFFE740E2FF8E6FD74A42FF58274015A
:1007FF003EF583EDF00FBF00010EEF64064E70E380
:01080F0022C6
:10084C00E534B4E70CE533B40307E4F533F534D3FE
:0B085C00220534E53470020533C3228E
:070929007F1E7E0002091091
:010943002291
:03094000A294225C
:0A08FD00A292B39292E4FE33FF22B0
:1007B900E4F5B1F5B2F5B3F5B4F5ACF5AD43B31065
:1007C90053B4EF43B38053B47F53B1FE43B20143F3
:1007D900B10253B2FD43E90153E9FB43EA0153EB8B
:0607E900FED2AAC291221B
:0A0205004201C400004201C20002E1
:0E08E2001207B91208D1C20412093BD2AF228C
:100830002000189001C4E0FEA3E0FFEE700DEF145D
:0C084000600604700602066B1208BF225E
:10066B009001C2E0FEA3E0FFEE703AEF24FE601CA7
:10067B000470327B017A01791A120224500E900118
:10068B00C5E004F070069001C4E004F07B017A0031
:10069B007996120224500E9001C5E004F07006907A
:0606AB0001C4E004F0228E
:1008BF0012061B5002B2829001A5E064306002B2B2
:0208CF0096226F
:03000B000206B139
:1006B100C0E0C0F0C083C082C0D075D000C000C00F
:1006C10001C002C003C004C005C006C00730000B52
:1006D1003001051208AB800312087FD007D006D085
:1006E10005D004D003D002D001D000D0D0D082D028
:0606F10083D0F0D0E032DE
:0300130002000EDA
:05000E00D203B28232B2
:10020F00021A0006020C0000020A0000C1000208D8
:04021F000000C10119
:1008D1005389F0438901758CFF758AFDD2A9D28CA9
:0108E10022F4
:10087F007414250BF9E4FAFB120867740E250BF9B3
:06088F00E4FAFB0205C4BF
:1005C4008F218B228A238924E50D450C6002B29089
:1005D400209043E50C7015E50D24F8700FD280C20D
:1005E40090E4F50CF50D120895020907C295E52172
:1005F4006004D2808002C280308113AB22AA23A976
:1006040024120867EF2524F524E43523F523050D8A
:07061400E50D7002050C2248
:10089500E51B24FFFFE51A34FFFEEFB50B07EEB5A8
:0608A5000A0312093622CD
:05093600D295C2002271
:09090700050BE50B7002050A2244
:10086700120477FFC37407950DFE7401A80608806C
:0708770002C333D8FC520755
:01087E002257
:1008AB00E50945086009E50915097007150822C215
:0408BB0001C2002254
:090910008E088F09D201D20022E9
:05093B00A204929022CD
:08092100E4F50AF50BD20022F7
:030000000204D027
:0C04D000787FE4F6D8FD75813402051732
:10038100E709F608DFFA8046E709F208DFFA803E5E
:1003910088828C83E709F0A3DFFA8032E309F6084B
:1003A100DFFA8078E309F208DFFA807088828C83B3
:1003B100E309F0A3DFFA806489828A83E0A3F60867
:1003C100DFFA805889828A83E0A3F208DFFA804C41
:1003D10080D280FA80C680D4806980F28033801018
:1003E10080A680EA809A80A880DA80E280CA803381
:1003F10089828A83ECFAE493A3C8C582C8CCC583F9
:10040100CCF0A3C8C582C8CCC583CCDFE9DEE780C8
:100411000D89828A83E493A3F608DFF9ECFAA9F047
:10042100EDFB2289828A83ECFAE0A3C8C582C8CC9D
:10043100C583CCF0A3C8C582C8CCC583CCDFEADEB6
:10044100E880DB89828A83E493A3F208DFF980CC18
:1004510088F0EF60010E4E60C388F0ED2402B40411
:100461000050B9F582EB2402B4040050AF232345B8
:0604710082239003D17309
:10047700BB010689828A83E0225002E722BBFE0283
:09048700E32289828A83E49322B6
:10049000BB010CE58229F582E5833AF583E0225021
:1004A00006E92582F8E622BBFE06E92582F8E2226B
:0D04B000E58229F582E5833AF583E4932285
:1004BD00E8600FEFC333FFEE33FEED33FDEC33FC9D
:0304CD00D8F12241
:1004DC00020003E493A3F8E493A34003F68001F233
:1004EC0008DFF48029E493A3F85407240CC8C33321
:1004FC00C4540F4420C8834004F456800146F6DFF0
:10050C00E4800B0102040810204080900016E47E69
:10051C00019360BCA3FF543F30E509541FFEE493E4
:10052C00A360010ECF54C025E060A840B8E493A3AB
:10053C00FAE493A3F8E493A3C8C582C8CAC583CAD6
:10054C00F0A3C8C582C8CAC583CADFE9DEE780BE8E
:0102230000DA
:00000001FF
